:0300000002164E97
:0C164E00787FE4F6D8FD75815302127B12
:10002600596F7572204431322063686970277320D6
:1000360049442069733A20002E20494420697320E0
:10004600636F72726563742120436F6E67726174A9
:10005600756C6174696F6E73210D0A0D0A002E208E
:10006600494420697320696E636F727265637421F7
:10007600205768617420612070697479210D0A0D1A
:100086000A002A2A2A2A2A2A2A2A2A2A2A2A2A2A14
:100096002A2A2A2A2A2A2A2A2A2A2A2A2A2A2A2ABA
:1000A6002A2A2A2A2A2A2A2A2A2A2A2A2A2A2A2AAA
:1000B6002A2A2A2A2A2A2A2A2A2A2A2A2A2A2A2A9A
:1000C6002A2A2A2A2A2A0D0A000000002A2A2A2A6F
:1000D6002A2A20202020202020202020202020A185
:1000E600B6C8A6C8A6BDCCC4E3CDE6555342A1B753
:1000F600D6AE20555342B4A5C3FEC6C1202020204B
:10010600202020202020202020202A2A2A2A2A2AAD
:100116000D0A000000002A2A2A2A2A2A2020202046
:1001260020202020202020202020202020202020C9
:100136002020415438395335322043505520202051
:1001460020202020202020202020202020202020A9
:10015600202020202A2A2A2A2A2A0D0A0000000006
:100166002A2A2A2A2A2A202020202020202020204D
:100176002020202020202020BDA8C1A2C8D5C6DA74
:10018600A3BA00000000000000000000000000000C
:100196000000000000000000000000000000000059
:1001A60000000000000000000000466562203235B5
:1001B6002032303132000000000000000000000054
:1001C6000000000000000000000000000000000029
:1001D6000000000000000000000000000000000019
:1001E6000000000000000000000000000000000009
:1001F6000000000020202020202020202020202079
:1002060020202020202A2A2A2A2A2A0D0A00000035
:1002160000000000000000000000000000000000D8
:1002260000000000000000000000000000000000C8
:1002360000000000000000000000000000002A2A64
:100246002A2A2A2A20202020202020202020202080
:1002560020202020202020BDA8C1A2CAB1BCE4A332
:10026600BA000000000000000000000000000000CE
:100276000000000000000000000000000000000078
:10028600000000000000000032333A30363A3130C8
:100296000000000000000000000000000000000058
:1002A6000000000000000000000000000000000048
:1002B6000000000000000000000000000000000038
:1002C6000000000000000000000000000000000028
:1002D6000000202020202020202020202020202058
:1002E60020202020202A2A2A2A2A2A0D0A00000055
:1002F60000000000000000000000000000000000F8
:1003060000000000000000000000000000000000E7
:100316000000000000000000000000002A2A2A2A2F
:100326002A2A2020202020202020202020202020B3
:10033600202020202020D7F7D5DFA3BAB5E7C4D4E4
:10034600C8A6C8A62020202020202020202020204B
:10035600202020202020202020202A2A2A2A2A2A5B
:100366000D0A000000002A2A2A2A2A2A20202020F4
:100376002020202020202020202020202020202077
:10038600BBB6D3ADB7C3CECAD7F7D5DFB5C4202029
:100396002020202020202020202020202020202057
:1003A600202020202A2A2A2A2A2A0D0A00000000B4
:1003B6002A2A2A2A2A2A20202020202020202020FB
:1003C60020555342D7A8C7F8A3BA687474703A2F59
:1003D6002F67726F75702E65646E6368696E612E25
:1003E600636F6D2F39332F202020202020202A2ACA
:1003F6002A2A2A2A0D0A000000002A2A2A2A2A2A3C
:10040600202020202020424C4F4731A3BA68747424
:10041600703A2F2F7777772E65646E6368696E6101
:100426002E636F6D2F626C6F672F636F6D707574BF
:1004360065723030202020202A2A2A2A2A2A0D0AEC
:10044600000000002A2A2A2A2A2A202020202020EA
:1004560020202020202020202020424C4F4732A35D
:10046600BA687474703A2F2F636F6D707574657205
:1004760030302E323169632E6F72672020202020A3
:1004860020202A2A2A2A2A2A0D0A000000002A2ABF
:100496002A2A2A2A2020202020202020202020202E
:1004A600202020202020C7EBB0B44B312D4B38B78D
:1004B600D6B1F0BDF8D0D0B2E2CAD4202020202098
:1004C6002020202020202020202020202A2A2A2AFE
:1004D6002A2A0D0A000000002A2A2A2A2A2A20206F
:1004E60020204B313ABBD8B5BDD6D0D0C420204B46
:1004F600323ABBADD6B1CFDF2020204B333ABBAD6D
:10050600C8FDBDC7D0CE20204B343ABBADD5FDB714
:10051600BDD0CE2020202A2A2A2A2A2A0D0A000007
:1005260000002A2A2A2A2A2A202020204B353ABBD4
:10053600ADD4B22020202020204B363AD5FDCFD294
:10054600C7FACFDF204B373ACEDE202020202020EE
:1005560020204B383ACEDE202020202020202020CC
:100566002A2A2A2A2A2A0D0A000000002A2A2A2ACA
:100576002A2A2A2A2A2A2A2A2A2A2A2A2A2A2A2AD5
:100586002A2A2A2A2A2A2A2A2A2A2A2A2A2A2A2AC5
:100596002A2A2A2A2A2A2A2A2A2A2A2A2A2A2A2AB5
:1005A6002A2A2A2A2A2A2A2A2A2A2A2A2A2A2A2AA5
:1005B6000D0A00000000000000000000000000001E
:1014730020B24A7FF41216661216758F39E5393099
:10148300E703120022E53930E6031216BAE53930D4
:10149300E003120B51E53930E1031216A8E53930A8
:1014A300E2031216C1E53930E30312169FE5393022
:0D14B300E4031216C2E53930E5031216C33A
:0114C0002209
:0813CB007DE87C037FE87E034E
:0813D3008E308F318C328D3316
:1013DB0078347C007D007BFF7A0579BC7E007F052D
:1013EB00120A40E4F534E531F535E530F536E533F1
:1013FB00F537E532F538E508600512147380F7E52B
:10140B000A60107B007A0079347D057F031214C1CA
:03141B0075080150
:01141E0022AB
:08141F007DE87C037FE87E03F9
:081427008E308F318C328D33C1
:10142F0078347C007D007BFF7A0579C17E007F05D3
:10143F00120A40753401E531F535E530F536E533FF
:10144F00F537E532F538E508600512147380F7E5D6
:10145F000A60107B007A0079347D057F031214C176
:03146F00750801FC
:011472002257
:0C0EEE008E248F258C268D278A288B29C6
:100EFA00E5252529FFE5243528FE1213D3E5252506
:100F0A0029FFE5243528FEAD27AC26121427E4F57F
:100F1A002AF52BAC2AAD2BE4120869E4FBFA7934E2
:100F2A0078431207C77BDA7A0F794978401206BEEE
:100F3A00120DC8C004C005C006C007AC28AD29E41C
:100F4A00120869D003D002D001D0001206BEC00434
:100F5A00C005C006C007AC24AD25E4120869D00359
:100F6A00D002D001D0001205CD1208A28E2C8F2DEE
:100F7A00AC2AAD2BE4120869E4FBFA7934784312FF
:100F8A0007C77BDA7A0F794978401206BE120DDE5E
:100F9A00C004C005C006C007AC28AD29E412086920
:100FAA00D003D002D001D0001206BEC004C005C0D2
:100FBA0006C007AC26AD27E4120869D003D002D0D8
:100FCA0001D0001205CD1208A28E2E8F2FAD2FACA4
:100FDA002EAF2DAE2C121427052BE52B7002052AF5
:100FEA00C39468E52A94015003020F1DE5252529BB
:0D0FFA00FFE5243528FEAD27AC260213D3F9
:1011D3007DD07C077FA07E0F1213D37DD07C077F49
:1011E300A07E0F1214277DD07C077F907E011214FE
:1011F30027752401752590D3E52594A0E524940F44
:10120300506BE5252470FDE52434FEFCE4120869E7
:10121300E4FBFA792078401207C7E4FBFA793478C3
:10122300431207C77BDA7A0F794978401206BE1258
:101233000DDEE4FBFA797A78441206BEA804A90508
:10124300AA06AB07E4FFFE7DFA7C441205C9120827
:10125300A28E268F27AD27AC26AF25AE24121427E6
:10126300740A2525F525E43524F524808AAD27ACB9
:0812730026AF25AE240213D3BF
:101107007851E630E00B7D007C087F007E081213E3
:10111700D37851E630E11C1213CB12141F7DB87C33
:101127000B7FB87E0B1214277DB87C0B7FB87E0B24
:101137001213D37851E630E23E7DE87C037FD07E00
:10114700071213D37DE87C037FD07E071214277D17
:10115700B87C0B1214237DB87C0B7FB87E0B12145E
:10116700277DE87C037FD07E071214277DE87C0368
:101177007FD07E071213D37851E630E3291213CBC1
:1011870012141F7DB87C0B1214237DB87C0B7FB81B
:101197007E0B1214277DE87C037FB87E0B12142781
:1011A70012141F1213CB7851E630E40F7BE87A0351
:1011B7007DD07C077FD07E07120EEE7851E630E5B2
:0C11C700031211D3E47853F67851F6229D
:10127B00D2AF1215981215B6E4F521E52175F04A97
:10128B00A42488F9740035F0FA7BFF1215FD0521B3
:10129B00E521C3941240E41216108E228F237BFF9C
:1012AB007A0079261215FDAF23AE22121501E52324
:1012BB00B4120DE522B410087BFF7A00793E80064C
:1012CB007BFF7A0079641215FD1215D3121631E4E7
:1012DB00F50A121473E50A60F9784FE6F4F5A0E508
:1012EB000870EFF5187853E670057851E660031235
:0712FB00110775180180DBEB
:0B168A005389F0438901D2A9D28C22C1
:101598007590FFE4784FF618F67852F6784DF6789D
:0E15A80050F608F67853F612168A75180122CE
:03000B0002136B72
:10136B00C0E0C0D075D000C000C001758CDC758AA0
:10137B0010E5186042E590F4784DF6794DE7785218
:10138B0066600B784E760018E67852F68029784E18
:10139B0006E6C39401402076017852E6784FF608B2
:1013AB00E6F41856785146F6784FE6F4085678531B
:1013BB0046F6784FE608F6D001D000D0D0D0E03218
:101621003031323334353637383941424344454617
:1015B600C2AF53890F438920759850758DF4758B8A
:0D15C600F4438780D2ACD28ED29CD2AF22EB
:0300230002165A68
:0C165A00309803C29832C2997519003212
:0A1695008F99751901E51970FC2208
:1015FD00120A66FF600C121695740129F9E43AFA85
:03160D0080EE224A
:10150100E4F52A7524307525787D057A00EF540FAE
:101511002421F582EA3416F583E493FC74242DF832
:10152100A604EEC4F854F0C868FEEFC4540F48FF97
:0D1531001DBD01D77B007A0079240215FD55
:0C166600D2B5C2B68F80D2B67580FF22CC
:03167200121666E7
:08167500C2B5C2B7AF80D2B7C5
:01167D00224A
:101610007FFD121672AD077C00121675EFFEAF0546
:0116200022A7
:0C167E00C2B5C2B68F80D2B67580FF22C4
:08000300EF2440FF12167222E7
:0316BE00021666AB
:0516B0007FF202166646
:10000E007F011216BE7FF1121666E4FF1216BE7F36
:04001E00F10216666F
:06153E008B3A8A3B893C58
:101544001216BE7FF0121666121675121675EFD3B8
:101554009D4002AF05E4FEEEC39F5017C2B7AB3AFD
:10156400AA3BA93C8E82758300E580120AACD2B7EF
:031574000E80E402
:011577002251
:0516B5007FFA02166639
:0814C1008B3A8A3B893CAE0521
:1014C9001216BE7FF0121666E4FF12167EAF0612E0
:1014D900167EFFEFC39E5017C2B6AB3AAA3BA93C92
:1014E9008F82758300120A7FF580D2B60F80E4756A
:0714F90080FF1216B5AF06DB
:0115000022C8
:0E164000AE077FD0121666EE4480FF02167EC3
:1015E900AE077FD8121666EE60047F018002E4FF21
:0415F90012167E2226
:10100700120110010000001088880101000101028F
:10101700030105010902A1010901A100050919013F
:1010270029031500250195037501810295017505B1
:1010370081030501093009311500260010350046E6
:101047000010751095028102C0C00902220001013B
:10105700008032090400000103000000092110018B
:1010670021012238000705810310000A040309043F
:101077005203357511810857085784765500530078
:101087004200134E3A532000480074007400700069
:101097003A002F002F00670072006F007500700084
:1010A7002E00650064006E006300680069006E0032
:1010B70061002E0063006F006D002F0039003300C0
:1010C7002F0028030A30085708575965604FA9733E
:1010D7005500530042000B304B4E55005300420061
:1010E700E68978644F5CBE8B0759160332003000DF
:1010F700310032002D00300031002D003100360064
:10157800E4FDFCC3ED9FEC9E5015E4FBFA0BBB00A9
:0F158800010AEB64E34A70F50DBD00010C80E42D
:011597002231
:1015D3007FF31216667F0612167E7F4712167E7FF2
:0615E300E87E030215780A
:0F1631007FF31216667F1612167E7F4702167E13
:0100220022BB
:0416BA00E4F5082229
:1013020090100EE493FDFFD3E50F9FE50E9400408D
:1013120029AB14AA15A9167F011214C190100EE46C
:1013220093FF7E00C3E50F9FF50FE50E9EF50EEFCE
:101332002516F516EE3515F51522E50F450E601347
:10134200AD0FAB14AA15A9167F011214C1E4F50E54
:10135200F50F22E517B40110AB14AA15A916E4FD86
:091362007F011214C1E4F5172209
:100B5100E4FF120003EF20E503020D6F7B007A0032
:100B6100793D7D10E4FF12153E12000E1216B07889
:100B71003DE6F50D08E6F5097840E6FE18E67C004D
:100B81002400F513EC3EF5127842E6FE18E6240047
:100B9100F511EC3EF5107844E6FE18E62400F50C5C
:100BA100EC3EF50BE50D20E703020D24C4135403BD
:100BB1006003020D7FE50924FA6003020D7FE5124F
:100BC10024FE6054147003020C6824E17003020CCB
:100BD100EA24216003020D7F7514FF751510751647
:100BE10007901007E493FF7E00D3E50C9FE50B9E71
:100BF100401D8E0E8F0F90100EE493FD7C00AE0E03
:100C0100AF0F120ACEED4C705B751701020D6C85AA
:100C11000B0E850C0F020D6C7514FF7515107516F2
:100C210051901054E493750E00F50FE50FFE9010EE
:100C310053E4937C002400F50FEC3EF50ED3E50C54
:100C4100950FE50B950E401690100EE493FDAE0E38
:100C5100AF0F120ACEED4C700B7517018006850B94
:100C61000E850C0F020D6CE513146018146023142B
:100C7100602E2403703F7514FF751510751673905F
:100C8100107380287514FF751510751677901077FD
:100C9100801A7514FF7515107516C99010C9800C4E
:100CA1007514FF7515107516F19010F1E493750E1A
:100CB10000F50F8008E4F50EF50F751701D3E50C6B
:100CC100950FE50B950E401890100EE493FD7C00F6
:100CD100AE0EAF0F120ACEED4C700B7517018006E8
:100CE100850B0E850C0F020D6C7514FF75151075B3
:100CF1001619750E00750F38D3E50C950FE50B9598
:100D01000E401890100EE493FD7C00AE0EAF0F1252
:100D11000ACEED4C700B7517018006850B0E850C04
:100D21000F8048E50DC413540314603104704FE57E
:100D31000924F7601524047045AF13E5131216401A
:100D4100E4F50EF50F7517018021E513F50AAF0AD9
:100D51001215E9E4F50EF50F751701800EE509246A
:100D6100F6701BE4F50EF50F7517010213027B00F7
:0F0D71007A00793D7D10E4FF12153E1216B02274
:0816A8007F011200030213028E
:0116C1002206
:09169F007F03120003E4F50822A8
:0116C2002205
:0116C3002204
:1005C60002090EE86480F8E933E83360110460F04C
:1005D600ED33EC337009E8FCE9FDEAFEEBFF22049B
:1005E60060DED3EB9FEA9EE99DE8C2E78CF0C2F796
:1005F60095F0400CE8CCF8E9CDF9EACEFAEBCFFB62
:100606001208D985D0F05804700320D5B3E80470D9
:10061600075002B2D502091892D5EC0460F7E4CC73
:10062600C0E0C398F8603B94186008400DD0E0FB2A
:100636000208F0E4FBFAC9FC8028E830E406E4C9C5
:10064600FBE4CAFCE830E305E4C9CACBFCE854077E
:100656006010F8C3E913F9EA13FAEB13FBEC13FC89
:10066600D8F130F52FC3E49CFCEF9BFFEE9AFEED2C
:1006760099FDD0E0FBEF4E4D4C701222DB030209D0
:1006860015EC2CFCEF33FFEE33FEED33FDED30E7DA
:10069600EB0208F0EF2BFFEE3AFEED39FDD0E0FB62
:1006A60050130BBB0003020918ED13FDEE13FEEF0A
:0806B60013FFEC13FC0208F035
:1006BE00EC4D6011E8497017ED33EC3304600DE436
:1006CE00FCFFFEFD22E933E8330470F802090E1236
:1006DE0008D958046009E4CC248150062850090238
:1006EE000918284003020915C0E0EB4A7044B9808E
:1006FE0006D0E0FB020904EF4E701CBD8008EBFF34
:10070E00EAFEE9FD80EBE98DF0A4FEE5F00207A715
:10071E00E9CDF9EAFEEBFFEF89F0A4FCE5F0CE8916
:10072E00F0A42EFFE435F0CD89F0A42DFEE435F0D3
:10073E008067EF4E7005BD80D780C3EF8BF0A4AC01
:10074E00F0EE8BF0A42CFCE435F0F8EF8AF0A42C3C
:10075E00E5F038FCE433CB8DF0A42CFCE5F03BF84F
:10076E00EE8AF0A42CFCE5F038F8E433CF89F0A43F
:10077E002CFCE5F038CF3400CE89F0A42FFFE5F045
:10078E003EFEE433C98DF0A42EFEE5F039CD8AF09D
:10079E00A42FFFE5F03EFEE43DFD33D0E0FB500715
:1007AE000BBB000F020918EC2CFCEF33FFEE33FEEF
:0607BE00ED33FD0208F01E
:1007C400020918EC5D046005E85904700302090E7F
:1007D4001208D9580460F6EC4860F2EC7004FDFE8F
:1007E400FF22C860DB2481C85009C3986002500608
:1007F4000209159850CAF582E9294B4A7005AB8263
:1008040002090475F0007C1A7880C3EF9BEE9AED20
:1008140099400DC3EF9BFFEE9AFEED99FDE842F07F
:10082400DC23ACF0D0E0FFD0E0FED0E0FDAB8220D2
:10083400E7101BEB60BAEC2CFCEF33FFEE33FEED5C
:1008440033FD0208F0E803F830E705C0F075F00066
:10085400EF2FFFEE33FEED33FD40B830E7C280AA40
:1008640075F020800E75F010800575F0087D007E0F
:10087400007F003392D530D503120B23EC334010A4
:10088400EF33FFEE33FEED33FDEC33FCD5F0ED2218
:0E089400E5F0247EA2D513CC92E7CDCEFF2254
:1008A200EDD2E7CD33EC3392D524814006E4FFFE4E
:1008B200FDFC22FCE4CFCECDCC24E0501174FF80AD
:1008C200EDC3CC13CCCD13CDCE13CECF13CF04704A
:0708D200F030D5DE020B231C
:100D80003A70FA83BCAAE9E43E81E0F8BF9DE9E647
:100D90003F80000039283C1ABB9969663DA335E3C2
:100DA000BF255DE73FC90FDB418DDBCCC44936EE83
:100DB00045C9913FC5B0F83D3F800000C317F534E9
:100DC000452FFA73C60AFDDD120E6F04A2E19200F0
:100DD0001420E015900D8074041209238026120E51
:100DE0006F30E102B20020E0EB8C308D318E328F1B
:100DF00033900D947404120923A830A931AA32ABA0
:100E0000331206BEED4C6007300004EC6480FC2217
:100E1000120E6FC0E08C308D318E328F33900DB852
:100E20007403120923A830A931AA32AB331206BECB
:100E3000ECC530FCEDC531FDEEC532FEEFC533FF2C
:100E4000900DA87403120923D082A830A931AA32C8
:100E5000AB33E58230E0071207C7B20080A6EFCBC4
:100E6000FFEECAFEEDC9FDECC8FC1207C78095ED88
:100E700033EC547FCC33920024605007D0E0D0E0B4
:100E800002090E7B837AF97922783E1206BEEDF9CB
:100E900033ECF83324815011EFFBEEFA1208A21262
:100EA0000864ECB2E7FC1205CDED33EC33602F247F
:100EB00003F8C313FCED92E7FDE82481E4501FEC36
:100EC000F8EDF9EEFAEFFB1208A2EF04C2E0FCF530
:100ED0008212086EECB2E7FC1205CDE58203FAED52
:0E0EE00033EC3360071413FCED92E7FDEA22B9
:1008D900E9D2E7C933E833F892D5EDD2E7CD33EC65
:0708E90033FC5002B2D522DE
:1008F000EC30E7100FBF000C0EBE00080DBD000469
:100900000BEB6014A2D5EB13FCED92E7FD2274FF14
:10091000FCFDFEFF22E480F8A2D574FF13FC7D806D
:03092000E480EF81
:10092300C0E0EFFBEEFAEDF9ECF81206BED0E0F50D
:10093300F0EFFBEEFAEDF9ECF8120B31A3A3A3A34E
:10094300E8C0E0E9C0E0EAC0E0EBC0E0C0F01206B6
:10095300BE120B41A3A3A3A31205CDD0F0D0E0FB9D
:0D096300D0E0FAD0E0F9D0E0F8D5F0D422D1
:10097000E709F608DFFA8046E709F208DFFA803E69
:1009800088828C83E709F0A3DFFA8032E309F60856
:10099000DFFA8078E309F208DFFA807088828C83BE
:1009A000E309F0A3DFFA806489828A83E0A3F60872
:1009B000DFFA805889828A83E0A3F208DFFA804C4C
:1009C00080D280FA80C680D4806980F28033801023
:1009D00080A680EA809A80A880DA80E280CA80338C
:1009E00089828A83ECFAE493A3C8C582C8CCC58304
:1009F000CCF0A3C8C582C8CCC583CCDFE9DEE780D4
:100A00000D89828A83E493A3F608DFF9ECFAA9F052
:100A1000EDFB2289828A83ECFAE0A3C8C582C8CCA8
:100A2000C583CCF0A3C8C582C8CCC583CCDFEADEC1
:100A3000E880DB89828A83E493A3F208DFF980CC23
:100A400088F0EF60010E4E60C388F0ED2402B4041C
:100A50000050B9F582EB2402B4040050AF232345C3
:060A600082239009C0731F
:100A6600BB010689828A83E0225002E722BBFE028E
:090A7600E32289828A83E49322C1
:100A7F00BB010CE58229F582E5833AF583E022502C
:100A8F0006E92582F8E622BBFE06E92582F8E22276
:0D0A9F00E58229F582E5833AF583E4932290
:100AAC00F8BB010DE58229F582E5833AF583E8F080
:100ABC00225006E92582C8F622BBFE05E92582C82C
:020ACC00F22214
:100ACE00BC000BBE0029EF8DF084FFADF022E4CC0C
:100ADE00F875F008EF2FFFEE33FEEC33FCEE9DECD5
:100AEE00984005FCEE9DFE0FD5F0E9E4CEFD22ED1B
:100AFE00F8F5F0EE8420D21CFEADF075F008EF2F65
:100B0E00FFED33FD4007985006D5F0F222C398FD55
:050B1E000FD5F0EA22F2
:0E0B2300C3E49FFFE49EFEE49DFDE49CFC22E3
:100B3100E493FC740193FD740293FE740393FF220A
:100B4100E493F8740193F9740293FA740393FB220A
:00000001FF
