:040000000C94B600A6
:100004000C9400000C9400000C9400000C9400006C
:100014000C9400000C9400000C9400000C9400005C
:100024000C9400000C9400000C9400000C9400004C
:100034000C9400000C9400000C9400000C9400003C
:100044000C9400000C9400000C9400000C9400002C
:100054000C9447020C9400000C9400000C940000D3
:100064000C9400000C9400000C9400000C9400000C
:100074001201100100000008888801220001010219
:10008400030105010902A1010901A10005091901E2
:100094002903150025019503750181029501750554
:1000A400810305010930093109381581257F750857
:1000B40095038106C0C009022200010100803209B3
:1000C400040000020301010009211001210122346E
:1000D400000705810310000A04030904520335755F
:1000E4001181085708578476550053004200134E77
:1000F4003A53200048007400740070003A002F0046
:100104002F00670072006F00750070002E006500FC
:1001140064006E006300680069006E0061002E00D8
:1001240063006F006D002F00390033002F0024039B
:100134000A30085708575965604FA9735500530092
:1001440042000B3020004B4E550053004200209FCC
:100154000768160332003000300039002D003000EB
:1001640035002D0031003000F894EE27EFBBF1E0AC
:10017400F5BFE5BFF8E1A895A4B7A77FA4BFF093A6
:100184006000E09360008DE0A2E0BB27ED938A95C8
:10019400E9F780E092E0A0E0B1E0ED930197E9F7A0
:1001A400E0E0EEBBEFEFEDBFE2E0EEBFC0E8D1E090
:1001B4000C9423012497E0E0E883E983EA83EB834A
:1001C400E0918401E37F41F4E0918601EC7021F435
:1001D400E0918501EC7099F1E0918401E17011F0F6
:1001E400EFEFE983E0918401E27011F0E1E0E9834B
:1001F400E0918401E07211F0EFEFEA83E091840171
:10020400E07111F0E1E0EA83E0918401E47019F017
:10021400E881E160E883E0918401E87019F0E88105
:10022400E260E883E1E0EA93E4E0EA93FE013296D7
:10023400FA93EA930E94A806E1E0E0938A010C9401
:100244009405F894E0E0E4BFE4B7E77FE4BFE0910D
:100254006000E861E0936000E0E0E09360000E94E9
:100264003D020E940E020E94BA0280D02E9A0E9481
:10027400CE05E091E100E17029F0EEEFE093E100BA
:100284000E94CA02E091E100E87029F0E7EFE093F0
:10029400E1000E94CB02E0E0E093E900E091E80095
:1002A400EC7011F00E94AE03A0918C01B0918D010D
:1002B400109721F4E0918E01E03031F0E091E800F4
:1002C400E17011F00E949605E1E0E093E900E0910D
:1002D400E800E17011F00E949805E2E0E093E90083
:1002E400E091E800E47011F00E949F05E3E0E093E0
:1002F400E900E091E800E17011F00E94B005E4E04B
:10030400E093E900E091E800E47011F00E94B70581
:10031400E0918601E03041F4E0918501E03021F480
:10032400E0918401E03001F1E0918901E030B9F01D
:10033400E0918A01E03099F4E0E0E0938801E091F3
:100344008601E03041F4E0918501E03021F4E09150
:100354008401E03009F02EDFE1E0E0938801E0E081
:10036400E0938601E093850184CFFFCFE0E0E09342
:100374008401E0938301E0938201E0938101E0939F
:100384008701E0938501E0938601E1E0E093880131
:100394000895E0E00895E0918801E03009F40895BB
:1003A400F8DFE0938101E0918201A0918101EA17D5
:1003B40041F0E0E0E0938301E0918101E093820168
:1003C4000895E0918301EF5FE0938301A09183019D
:1003D400A13008F1E1E0E0938301E0918201E09330
:1003E4008401E0918701E095A0918401EA23A09122
:1003F4008501EA2BE0938501E0918401E095A091C9
:100404008701EA23A0918601EA2BE0938601E0911B
:100414008401E09387010895E4B1E06CE4B9E5B1A7
:10042400EF73E5B908952497EC81FD816E817F8196
:10043400319760407040EC83FD836E837F83EF5F70
:10044400FF4F6F4F7F4FA9F0E0E2F3E060E070E010
:10045400E883F9836A837B83E881F9816A817B81FC
:10046400319760407040E883F9836A837B83A1F706
:10047400DBCF28960895E5E0E093D000E0E8E09330
:100484006100E0E0E093610008950A921A92FA9202
:100494006A937A938A939A93AA93BA93EA93FA9370
:1004A400EFB7EA93E1EBE6BD0E94CD01E091900144
:1004B400EF5FE0939001A1E9B1E0ED91FD913196F8
:1004C400FE93EE933197A0919101B0919201E6E1F0
:1004D400F3E00E94F206309729F4E8E0E093840107
:1004E400E0938501A0919101B0919201A032E3E0E3
:1004F400BE0758F0E0E0F0E0E0939101F093920140
:10050400E0938401E8E0E0938601A0919001A93191
:1005140008F1E0E0E0939001E0918001E03099F08F
:10052400E0918F01E03011F02F9A01C02F98E091F3
:100534008F010E94DA06E0938F01E0918001E1507F
:10054400E093800107C0E0918901E03011F02F9A17
:1005540001C02F98E991EFBFF991E991B991A9915F
:100564009991899179916991F990199009901895C7
:10057400E0E0E4BDE5E0E5BDE1EBE6BDE0E0E7BDDC
:10058400E8BDE0916E00E160E0936E007894089518
:1005940008951ED3E0E0E0938901EA9330D3E0E0CC
:1005A400E0938E01E0E0F0E0E0938C01F0938D01A4
:1005B400E0938A01D6C2EBE7F0E0E491A0918C01CC
:1005C400B0918D01F0E0EA17FB0710F00C94520390
:1005D400E091A301F091A4016091A5017091A6019D
:1005E400E070F07060707F7FE030A0E0FA07A0E078
:1005F4006A07A1E07A07B9F4E0E0EA93EBE7F0E0F8
:10060400E491EA93E091A301F091A4016091A50122
:100614007091A601EF7FFF7F60707070FA93EA9388
:100624000E94A80616C0E0E0EA93EBE7F0E0E4914C
:10063400EA93E091A301F091A4016091A501709166
:10064400A601EF7FFF7F60707070FA93EA930E94B7
:10065400BB06EBE7F0E0E491A0918C01B0918D0131
:10066400F0E0AE1BBF0BA0938C01B0938D01EBE7C0
:10067400F0E0E491A091A301B091A4018091A501BF
:100684009091A601FF27662777270E94D506E0935D
:10069400A301F093A4016093A5017093A6015BC02C
:1006A400E0918C01F0918D01309711F40C949E032C
:1006B400E091A301F091A4016091A5017091A601BC
:1006C400E070F07060707F7FE030A0E0FA07A0E097
:1006D4006A07A1E07A07A9F4E0E0EA93E0918C01CB
:1006E400EA93E091A301F091A4016091A5017091B6
:1006F400A601EF7FFF7F60707070FA93EA9326D3B0
:1007040014C0E0E0EA93E0918C01EA93E091A30144
:10071400F091A4016091A5017091A601EF7FFF7F84
:1007240060707070FA93EA9324D3E0E0F0E0E09311
:100734008C01F0938D010FC0A0918E01A13059F46A
:10074400E0E0EA93EA93E0E0F0E0FA93EA93FED281
:10075400E0E0E0938E0108952497E0E0EA93AFD2BD
:10076400309711F40C948805E0E0EA93E0E1EA9311
:10077400E3E9F1E0FA93EA93BDD2FF2766277727EE
:10078400E883F9836A837B83E0E0EA93ACD2A881AF
:10079400B9818A819B81A830E0E0BE07E0E08E0742
:1007A400E0E09E0709F0BEC150909301409094018F
:1007B400A0919501F0919601E0E0B0E0EA0FFB1FF3
:1007C4003F01A0919701F0919801E0E0B0E0EA0FB9
:1007D400FB1F4F01A0919901F0919A01E0E0B0E074
:1007E400EA0FFB1F5F01E52DE078E03811F00C946F
:1007F4004405E52DE295EF70E695E370E03011F0E5
:100804000C944305E42DE83009F43BC1E63011F0C3
:100814000C944305E72DF070E130A0E0FA0791F560
:10082400E4E7F0E066277727E093A301F093A401BF
:100834006093A5017093A601E4E7F0E0E491D5018B
:10084400F0E0EA17FB07C0F4E4E7F0E0E491F0E03D
:10085400E0938C01F0938D01EBE7F0E0E491A0913B
:100864008C01B0918D01F0E00E94F206309719F4EA
:10087400E1E0E0938E0104C0A0928C01B0928D015E
:100884009ADEFFC0E230A0E0FA0711F00C94850470
:10089400EAEBF0E066277727E093A301F093A40145
:1008A4006093A5017093A601EDEBF0E0E491F0E014
:1008B400E0938C01F0938D01F0918C01E0E0DF0175
:1008C400ECEBF0E0E491F0E0EA0FFB1FE0938C0125
:1008D400F0938D01EA15FB0580F4EBE7F0E0E49179
:1008E400A0918C01B0918D01F0E00E94F206309746
:1008F40019F4E1E0E0938E0104C0A0928C01B0925F
:100904008D0159DEBEC0E330A0E0FA0711F00C946B
:100914001505F301F0703097A9F4ECEDF0E06627CB
:100924007727E093A301F093A4016093A50170934A
:10093400A601ECEDF0E0E491F0E0E0938C01F0939B
:100944008D0154C0E130A0E0FA07A9F4E0EEF0E034
:1009540066277727E093A301F093A4016093A50190
:100964007093A601E0EEF0E0E491F0E0E0938C01F6
:10097400F0938D013BC0E230A0E0FA07A9F4E2E372
:10098400F1E066277727E093A301F093A401609335
:10099400A5017093A601E2E3F1E0E491F0E0E093B5
:1009A4008C01F0938D0122C0E330A0E0FA07A9F492
:1009B400E6E5F1E066277727E093A301F093A4012D
:1009C4006093A5017093A601E6E5F1E0E491F0E0FF
:1009D400E0938C01F0938D0109C0E0E0F0E0E09336
:1009E4008C01F0938D01E1E0E0938E01E0918C01A4
:1009F400F0918D01EA15FB0580F4EBE7F0E0E4915A
:100A0400A0918C01B0918D01F0E00E94F206309724
:100A140019F4E1E0E0938E0104C0A0928C01B0923D
:100A24008D01C9DD2EC0E232A0E0FA0751F5E6E8F7
:100A3400F0E066277727E093A301F093A401609385
:100A4400A5017093A601E4E3F0E0E0938C01F09338
:100A54008D01EA15FB0580F4EBE7F0E0E491A09149
:100A64008C01B0918D01F0E00E94F206309719F4E8
:100A7400E1E0E0938E0104C0A0928C01B0928D015C
:100A84009ADD43C0E52DE295EF70E695E370E03022
:100A940081F5E42DE13061F1E53071F4E0E0F0E05E
:100AA400E0938C01F0938D01E1E0E0938E0183DD0E
:100AB400F301EA93B4D01CC0E93051F4F301E0939C
:100AC4008901EA939CD0E0918901EA93C5D006C0DC
:100AD400E73071F0E33061F0EB3051F0E0E0F0E04A
:100AE400E0938C01F0938D01E1E0E0938E0163DDEE
:100AF4000CC0E13051F4E0E0F0E0E0938C01F093BD
:100B04008D01E1E0E0938E0156DD0CC0E0E0EA9354
:100B1400E0E1EA93E3E9F1E0FA93EA93EBD0EBEF57
:100B2400E093E8002496089546DD0895EEEFE093FF
:100B3400E800E0E0E0938A0108952297EBEFE09368
:100B4400E800E2E0EA93EA93FE013296FA93EA932C
:100B5400D1D0E2E0EA93C0D022960895EEEFE0937C
:100B6400E800E0E0E0938B010895EBEFE093E80008
:100B74000895E1E0E093E000E8EEF3E060E070E087
:100B84000E94F5060E9415020895E0E8E093D8005B
:100B9400E0E0E093E0000895ECDFE4E0E9BDE9B5CE
:100BA400E260E9BDE9B5E170E9F3E0E0E093D80083
:100BB400E0E8E093D800E0E0E093DC00E093FB00A1
:100BC400E093E200E093F000E0938901DEDF089512
:100BD400EFE1E093EA00E0E0E093EA00E093E9006B
:100BE400E093E800E1E0E093EB00E0E0E093EC0068
:100BF400E2E0E093ED00E0E8E093D8000895E0E05F
:100C0400E883A2C0E881E03021F4E091E300EF77CB
:100C140003C0E091E300E068E093E30095C0E8815D
:100C2400E093E300E091E800E17079F4A091E10041
:100C3400E1E0E03029F4E8E0E03011F4E0E001C064
:100C4400E1E0EA2309F080C0EDCFE881E03019F05B
:100C5400E1E0EA93D7DF78C0E881E03079F1E1E0C0
:100C6400E093E900E093EB00E1ECE093EC00E2E1D7
:100C7400E093ED00E2E0E093E900E1E0E093EB00D3
:100C8400E0ECE093EC00E2E1E093ED00E3E0E093DC
:100C9400E900E1E0E093EB00E1E8E093EC00E2E35B
:100CA400E093ED00E4E0E093E900E1E0E093EB00A1
:100CB400E0E8E093EC00E2E3E093ED0045C0E88176
:100CC400E093E900E091E800E87019F0EFEFF0E05C
:100CD4003BC0E0E0F0E038C0E881E093E900EFE7F2
:100CE400E093E8002EC0E881E093E900E7EFE093A9
:100CF400E80027C01A930A93ED81E093E90000917C
:100D0400F200EC81E01708F40C8110E0101750F4A5
:100D1400AA81BB81EE27A10FBE1FE091F100EC93E5
:100D24001F5FF4CFE02F1981088126960895E8818A
:100D3400E093E900E03011F4EEEF01C0EFE7E09357
:100D4400E800E2E0E0938001219608951A93EC8193
:100D5400E093E90010E0EB811E1750F4A981BA81F9
:100D6400EE27A10FBE1FEC91E093F1001F5FF3CFBC
:100D740013C01A93EC81E093E90010E0EB811E1795
:100D840058F4E12FA981BA81F0E0EA0FFB1FE49146
:100D9400E093F1001F5FF2CFEC81EA93C8DFEB81AF
:100DA400188125960895EA0FFB1F681F791F08957F
:100DB400EE23E1E009F0EE2708950024112490E1E8
:100DC400AA0FBB1F001C111C0E1A1F0A18F40E0ECA
:100DD4001F1E01C0A1609A9599F7FD01D0010895E5
:100DE400ECDFFD0108957A936A93FA93EA930895E8
:00000001FF
