:0300000002166085
:0C166000787FE4F6D8FD7581740216A7AF
:101A7800596F75722044313220636869702773206A
:0E1A880049442069733A20000000000000006D
:1018D30020B24A7FF4121B58121B678F56E556300D
:1018E300E703120022E55630E603121BA2E5563049
:1018F300E0031205E9E55630E103121B9AE5563081
:10190300E203121BB9E55630E303121B91E556308F
:0D191300E403121BBAE55630E503121BBBBE
:0119200022A4
:0A1878007B017DE87C037FE87E031E
:0A1882008E2F8F308C318D328B33A6
:10188C0078347C007D007BFF7A1A79907E007F068D
:10189C001204A0753401853335E530F536E52FF5A6
:1018AC0037E532F538E531F539E50860051218D31E
:1018BC0080F7E50B60107B007A0079347D067F039E
:0618CC0012196C75080101
:0118D20022F3
:0C121B008E238F248C258D268A278B289B
:10122700E5242528FFE5233527FEE4FB121882E590
:10123700242528FFE5233527FE7B01AD26AC2512A3
:101247001882E4F529F52AAC29AD2AE41202C9E48B
:10125700FBFA793478431202277BDA7A0F794978D7
:101267004012011E120FD0C004C005C006C007AC53
:1012770027AD28E41202C9D003D002D001D0001252
:10128700011EC004C005C006C007AC23AD24E4128C
:1012970002C9D003D002D001D00012002D120302E0
:1012A7008E2B8F2CAC29AD2AE41202C9E4FBFA7904
:1012B7003478431202277BDA7A0F79497840120192
:1012C7001E120FE6C004C005C006C007AC27AD2834
:1012D700E41202C9D003D002D001D00012011EC00F
:1012E70004C005C006C007AC25AD26E41202C9D06C
:1012F70003D002D001D00012002D1203028E2D8FD1
:101307002E7B01AD2EAC2DAF2CAE2B121882052AE9
:10131700E52A70020529C39468E529940150030260
:10132700124EE5242528FFE5233527FEE4FBAD26ED
:05133700AC2502188244
:10151800E4FB7DD07C077FA07E0F1218827B017DC3
:10152800D07C077FA07E0F1218827B017DD07C07BC
:101538007F907E01121882752301752490D3E524CB
:1015480094A0E523940F506DE5242470FDE5233421
:10155800FEFCE41202C9E4FBFA7920784012022763
:10156800E4FBFA793478431202277BDA7A0F794957
:10157800784012011E120FE6E4FBFA797A784412D9
:10158800011EA804A905AA06AB07E4FFFE7DFA7CA4
:10159800441200291203028E258F267B01AD26AC4A
:1015A80025AF24AE23121882740A2524F524E435C5
:1015B80023F5238088E4FBAD26AC25AF24AE2302B7
:0215C800188287
:101430007872E630E00BE4FBFD7C08FF7E081218B2
:10144000827872E630E122E4FB12187A1218787B77
:10145000017DB87C0B7FB87E0B121882E4FB7DB84F
:101460007C0B7FB87E0B1218827872E630E24AE479
:10147000FB7DE87C037FD07E071218827B017DE82C
:101480007C037FD07E071218827B017DB87C0B1213
:10149000187E7B017DB87C0B7FB87E0B1218827B97
:1014A000017DE87C037FD07E07121882E4FB7DE893
:1014B0007C037FD07E071218827872E630E333E433
:1014C000FB12187A1218787B017DB87C0B12187EFB
:1014D0007B017DB87C0B7FB87E0B1218827B017D6F
:1014E000E87C037FB87E0B121882121878E4FB1296
:1014F000187A7872E630E40F7BE87A037DD07C07B7
:101500007FD07E0712121B7872E630E503121518A1
:08151000E47874F67872F6220B
:1010F600753F0075400075412B75420075430075BC
:0B11060044337545047B007A00792318
:061111008B3C8A3D893E83
:10111700E545700302121AE545D3940A4003754565
:101127000A754702E4F546E546C3954540030212B2
:101137001AAB42AA43A9448546827583001204DF8D
:10114700F548E54604F549AB3CAA3DA93E75F002D2
:10115700E546A4F58285F083120583AEF0F54AEEE5
:10116700F54BAB3FAA40A94175F002E546A4F582CD
:1011770085F083120583AEF0F54CEEF54DE546702C
:10118700058545548003E4F5540546E546C3954572
:101197005050AB42AA43A944854682758300120486
:1011A700DFF54EE54604F54FAB3CAA3DA93E75F089
:1011B70002E546A4F58285F083120583AEF0F5506B
:1011C700EEF551AB3FAA40A94175F002E546A4F5FB
:1011D7008285F083120583AEF0F552EEF55305468E
:0211E700801175
:1011E90075550774472555F8E4F60555E555B40DC9
:0111F900F203
:1011FA00E50860051218D380F7E50B60137B007AC7
:10120A000079477D0E7F0312196C75080102112EB1
:01121A0022B1
:101A2300752308752400752508752600EF60057574
:101A330027078003E4F527753F00754000754125AE
:101A43007542007543007544277545017B007A0094
:051A53007923021111CE
:1015CA007523037524E87525037526E875270675BE
:1015DA003F0075400075412575420075430075440A
:1015EA00277545017B007A007923121111752707A7
:1015FA00753F0075400075412575420075430075B9
:10160A0044277545017B007A00792312111175234D
:10161A000B7524B875250B7526B8753F0075400003
:10162A007541257542007543007544277545017B50
:10163A00007A007923121111E4F527F53F7540006D
:10164A00754125F542754300754427754501FB7AB6
:06165A00007923021111CA
:100A61007523077524D07527037528E8752B06852E
:100A71002325852426E52824F4F52AE5273401F5E4
:100A810029752C06753F0075400075412775420098
:100A910075430075442B7545027B007A007923125A
:100AA1001111752B07752C07753F007540007541B5
:100AB1002775420075430075442B7545027B007A0A
:100AC1000079231211117523037524E875270B751D
:100AD10028B87F917E0A7D067C3F120FD0E4FBFA95
:100AE10079FA784312011EC004C005C006C007ACE4
:100AF10023AD24E41202C9D003D002D001D00012E8
:100B0100002D1203028E258F267F917E0A7D067CA1
:100B11003F120FE6E4FBFA79FA784312011EC00492
:100B2100C005C006C007AC27AD28E41202C9D00336
:100B3100D002D001D0001200291203028E298F2A7F
:100B4100753F00754000754127754200754300757A
:100B5100442B7545027B007A00792312111175230C
:100B61000B7524B875270B7528B87F917E0A7D0611
:100B71007C3F120FD0E4FBFA79FA784312011EC0D0
:100B810004C005C006C007AC23AD24E41202C9D0DD
:100B910003D002D001D0001200291203028E258F4A
:100BA100267F917E0A7D067C3F120FE6E4FBFA79EF
:100BB100FA784312011EC004C005C006C007AC2765
:100BC100AD28E41202C9D003D002D001D000120036
:100BD100291203028E298F2A753F00754000754145
:100BE1002775420075430075442B7545027B007AD9
:100BF1000079231211117523077524D07527037508
:100C010028E8852325852426E52824F4F52AE527E7
:100C11003401F529753F0075400075412775420083
:100C210075430075442B7545027B007A00792312C8
:100C31001111E4F52BF52CF53F754000754127F5B1
:100C41004275430075442B754502FB7A00792302F6
:020C510011117F
:10133C007523037524E8752B03752CE87533067F2C
:10134C0001EF25E02421F8E6FC08E62464FDE43CEA
:10135C00FCEF25E02423F8A60408A605EF25E024DD
:10136C0029F8E6FC08E62464FDE43CFCEF25E024C7
:10137C002BF8A60408A60574332FF8A6330FBF0468
:10138C00C01210F67F0478337407F608DFFC1210D5
:10139C00F6752B0B752CB8752D0B752E54752F0AF5
:1013AC007530F075310A75328C1210F675230B7589
:1013BC0024B875250B75265475270A7528F07529E0
:1013CC000A752A8C1210F6752B03752CE8752D04F2
:1013DC00752E4C752F047530B0753105753214129D
:1013EC0010F67523037524E875250475264C7527AE
:1013FC00047528B0752905752A141210F67F047827
:10140C0033E4F608DFFC753F0075400075412B7521
:10141C0042007543007544337545047B007A0079AE
:04142C002302111175
:1008420075230B7524B875250A7526F075270A7568
:100852002828E4F532F533AF33EF25E02429F87682
:10086200070876D0742F2FF876060533E533700229
:1008720005326403453270DF753F007540007541F3
:100882002975420075430075442F7545037B007A34
:10089200007923121111E4F532F533742F2533F860
:1008A20076070533E533700205326403453270EB97
:1008B200753F00754000754129754200754300750A
:1008C200442F7545037B007A007923121111E4F558
:1008D20032F533AC32AD33E41202C9E4FBFA7934B7
:1008E20078431202277BDA7A0F7949784012011E87
:1008F200120FE68F378E368D358C34AC32AD33E441
:100902001202C9E4FBFA793478431202277BDA7ABD
:100912000F7949784012011E120FD08F3B8E3A8D0B
:10092200398C38E4FFFE7D7A7C44AB3BAA3AA93984
:10093200A83812011EE4FBFA79FA784412002D124B
:1009420003028E238F24E4FFFE7D7A7C44AB37AA18
:1009520036A935A83412011EE4FBFA79FA7844125A
:10096200002D1203028E298F2AE4FFFE7D487C446B
:10097200AB3BAA3AA939A83812011EE4FBFA79FA6C
:10098200784412002D1203028E258F26E4FFFE7D8D
:10099200487C44AB37AA36A935A83412011EE4FBC1
:1009A200FA79FA784412002D1203028E2B8F2CE46E
:1009B200FFFE7D167C44AB3BAA3AA939A838120146
:1009C2001EE4FBFA79FA784412002D1203028E27F4
:1009D2008F28E4FFFE7D167C44AB37AA36A935A8E2
:1009E2003412011EE4FBFA79FA784412002D120344
:1009F200028E2D8F2E753F0075400075412975427C
:100A02000075430075442F7545037B007A007923F6
:100A12001211110533E53370020532C39468E532D1
:100A2200940150030208D5E4F532F533742F2533CF
:100A3200F8E4F60533E5337002053264034532709B
:100A4200EB753F0075400075412975420075430002
:0F0A520075442F7545037B007A0079230211113B
:100E16007523017524907527077528D075250175EA
:100E26002690752907752AD0752B06752C06753FF1
:100E36000075400075412775420075430075442BC7
:100E46007545027B007A007923121111752B0775FF
:100E56002C07753F007540007541277542007543A4
:100E66000075442B7545027B007A00792312111117
:100E7600752D01752E90D3E52E94A0E52D940F4087
:100E860003020F68852D23852E24852D25852E2684
:100E9600E52E2470FDE52D34FEFCE41202C9E4FBC8
:100EA600FA79207840120227E4FBFA793478431263
:100EB60002277BDA7A0F7949784012011E120FE673
:100EC600E4FBFA797A784412011EA804A905AA0659
:100ED600AB07E4FFFE7DFA7C441200291203028E62
:100EE600278F28E52E2470FDE52D34FEFCE4120242
:100EF600C9E4FBFA79207840120227E4FBFA793438
:100F060078431202277BDA7A0F7949784012011E5C
:100F1600120FD0E4FBFA797A784412011EA804A9CC
:100F260005AA06AB07E4FFFE7DFA7C4412002912EF
:100F360003028E298F2A753F00754000754127757B
:100F4600420075430075442B7545027B007A007993
:100F560023121111740A252EF52EE4352DF52D02D6
:100F66000E7CE4F52BF52CF53F754000754127F511
:100F76004275430075442B754502FB7A00792302BE
:020F8600111147
:101921007874E630E005E4FF121A237870E630E0BF
:10193100057F01121A237872E630E1031215CA7885
:1019410072E630E203120A617872E630E3031213A1
:101951003C7872E630E4031208427872E630E5031F
:0B196100120E16E47874F67872F6227D
:10181C00D2AF121A96121AB4121B0E8E218F227B83
:10182C00FF7A1A7978121AFBAF22AE211219AC1278
:10183C001AD1121B2FE4F50B1218D3E50B60F978B3
:10184C0070E6F4F5A0E50870EFF5197874E6700A07
:10185C007872E670057870E6600DE509B402051241
:0C186C001921800312143075190180CC82
:0B1B7C005389F0438901D2A9D28C22CA
:101A96007590FFE47870F618F67873F6786EF67837
:0E1AA60071F608F67874F6121B7C7519012291
:03000B000217BC1D
:1017BC00C0E0C0D075D000C000C001758CDC758A4B
:1017CC0010E5196042E590F4786EF6796EE778735F
:1017DC0066600B786F760018E67873F68029786F60
:1017EC0006E6C39401402076017873E67870F6081B
:1017FC00E6F41856787246F67870E6F40856787463
:10180C0046F67870E608F6D001D000D0D0D0E032A1
:101B1F003031323334353637383941424344454614
:101AB400C2AF53890F438920759850758DF4758B87
:0D1AC400F4438780D2ACD28ED29CD2AF22E8
:03002300021B4C71
:0C1B4C00309803C29832C299751A00321A
:0A1B87008F99751A01E51A70FC220F
:101AFB001204C6FF600C121B87740129F9E43AFA31
:031B0B0080EE2247
:1019AC00E4F5297523307524787D057A00EF540F02
:1019BC00241FF582EA341BF583E493FC74232DF881
:1019CC00A604EEC4F854F0C868FEEFC4540F48FFE8
:0D19DC001DBD01D77B007A007923021AFBA4
:0C1B5800D2B5C2B68F80D2B67580FF22D5
:031B6400121B58F9
:081B6700C2B5C2B7AF80D2B7CE
:011B6F002253
:101B0E007FFD121B64AD077C00121B67EFFEAF0555
:011B1E0022A4
:0C1B7000C2B5C2B68F80D2B67580FF22CD
:08000300EF2440FF121B6422F0
:031BB600021B58B7
:051BA8007FF2021B5852
:10000E007F01121BB67FF1121B58E4FF121BB67F45
:04001E00F1021B5878
:0619E9008B5B8A5C895D46
:1019EF00121BB67FF0121B58121B67121B67EFD327
:1019FF009D4002AF05E4FEEEC39F5017C2B7AB5B2D
:101A0F00AA5CA95D8E82758300E58012050CD2B7A2
:031A1F000E80E452
:011A220022A1
:051BAD007FFA021B5845
:08196C008B5B8A5C895DAE050E
:10197400121BB67FF0121B58E4FF121B70AF061245
:101984001B70FFEFC39E5017C2B6AB5BAA5CA95D88
:101994008F827583001204DFF580D2B60F80E47560
:0719A40080FF121BADAF062E
:0119AB002219
:0E1B3E00AE077FD0121B58EE4480FF021B70D2
:101AE700AE077FD8121B58EE60047F018002E4FF27
:041AF700121B70222C
:100C53001201100100000010888802010001010246
:100C6300030105010902A10185010901A10005098B
:100C730019012903150025019503750181029501C9
:100C8300750581030501093009311500260010356A
:100C930000460010751095028102C0C0050D0904BD
:100CA300A10185020922A10209421500250175014E
:100CB3009501810209328102094781029505810369
:100CC300250A750809519501810205012600107551
:100CD30010550065000930350046000081020931D6
:100CE3004600008102C0A102050D0942150025013D
:100CF3007501950181020932810209478102950537
:100D03008103250A75080951950181020501260011
:100D1300107510550065000930350046000081024A
:100D230009314600008102C0050D0954950175087B
:100D33001500250A81020955B102C0050D090EA14E
:100D43000185030923A102095209531500250A75D8
:100D5300089502B102C0C0020A0902220001010083
:100D63008032090400000103000000092110012161
:100D73000122F5000705810310000A040309045248
:100D8300033575118108570857847655005300427F
:100D930000134E3A53200048007400740070003A68
:100DA300002F002F00670072006F00750070002E87
:100DB30000650064006E006300680069006E0061F6
:100DC300002E0063006F006D002F00390033002FE9
:100DD300002C030A30085708575965604FA973550B
:100DE30000530042000B304B4E5500530042001A93
:100DF30059B970E68978644F5CBE8B075916033284
:100E0300003000310032002D00300031002D00325F
:030E1300003500A7
:031BB20001090026
:101A5800E4FDFCC3ED9FEC9E5015E4FBFA0BBB00C4
:0F1A6800010AEB64E34A70F50DBD00010C80E448
:011A7700224C
:101AD1007FF3121B587F06121B707F47121B707F0A
:061AE100E87E03021A5822
:0F1B2F007FF3121B587F16121B707F47021B702B
:0100220022BB
:061BA200E4F508F509223C
:1016EC00900C5AE493FDFFD3E5109FE50F94004056
:1016FC0029AB15AA16A9177F0112196C900C5AE484
:10170C0093FF7E00C3E5109FF510E50F9EF50FEFDC
:10171C002517F517EE3516F51622E510450F601353
:10172C00AD10AB15AA16A9177F0112196CE4F50FB1
:10173C00F51022E518B40110AB15AA16A917E4FD93
:09174C007F0112196CE4F518226A
:10175500E50E64217050E50A6409704A7004E513CA
:1017650064037042E5146403703CE512451170365C
:08177500E50D6403450C702E24
:10177D00FB7A0079577D03FF1219E98F5A121BA8C6
:10178D00E55AB50D0CE4B50C08E557B403038558BF
:0E179D00097B007A007900E4FD7F0102196CDF
:1017AB007B007A00795E7D10E4FF1219E9121BA809
:0117BB00220B
:1005E900E4FF120003EF20E50302083E7B007A00D6
:1005F900795E7D10E4FF1219E912000E121BA8782A
:100609005EE6F50E08E6F50A7861E6FE18E67C0076
:100619002400F514EC3EF5137863E6FE18E6240091
:10062900F512EC3EF5117865E6FE18E62400F50DA5
:10063900EC3EF50CE50E20E7030207F3C41354035F
:100649001470030207C3046003020841E50A24FA8F
:100659006003020841E51324FE6054147003020785
:100669000724E17003020789242160030208417508
:1006790015FF75160C751753900C53E493FF7E0004
:10068900D3E50D9FE50C9E401D8E0F8F10900C5ADF
:10069900E493FD7C00AE0FAF1012052EED4C705B9C
:1006A90075180102083B850C0F850D1002083B7572
:1006B90015FF75160D75175C900D5FE493750F00A6
:1006C900F510E510FE900D5EE4937C002400F51012
:1006D900EC3EF50FD3E50D9510E50C950F401690FE
:1006E9000C5AE493FDAE0FAF1012052EED4C700BB2
:1006F9007518018006850C0F850D1002083BE5145D
:1007090014601814602314602E2403703F7515FFBC
:1007190075160D75177E900D7E80287515FF751657
:100729000D751782900D82801A7515FF75160D7556
:1007390017D4900DD4800C7515FF75160E7517001A
:10074900900E00E493750F00F5108008E4F50FF59D
:1007590010751801D3E50D9510E50C950F4018900B
:100769000C5AE493FD7C00AE0FAF1012052EED4C30
:10077900700B7518018006850C0F850D1002083B5A
:100789007515FF75160C751765750F007510F5D37E
:10079900E50D9510E50C950F4018900C5AE493FD62
:1007A9007C00AE0FAF1012052EED4C700B751801C1
:1007B9008006850C0F850D108078E50A147079E59F
:1007C9001464027004E5136403706DE51245117039
:1007D90067E50D6402450C705F7515FF75160D759B
:1007E900175A850C0F850D108048E50EC413540364
:1007F900146031047042E50A24F760152404703846
:10080900AF14E514121B3EE4F50FF51075180180BD
:1008190021E514F50BAF0B121AE7E4F50FF5107586
:100829001801800EE50A24F6700EE4F50FF510752F
:0908390018010216EC12175522F9
:081B9A007F011200030216ECAA
:011BB9002209
:091B91007F03120003E4F50822B1
:011BBA002208
:011BBB002207
:1000260002036EE86480F8E933E83360110460F097
:10003600ED33EC337009E8FCE9FDEAFEEBFF220440
:1000460060DED3EB9FEA9EE99DE8C2E78CF0C2F73B
:1000560095F0400CE8CCF8E9CDF9EACEFAEBCFFB07
:1000660012033985D0F05804700320D5B3E8047024
:10007600075002B2D502037892D5EC0460F7E4CCBF
:10008600C0E0C398F8603B94186008400DD0E0FBD0
:10009600020350E4FBFAC9FC8028E830E406E4C910
:1000A600FBE4CAFCE830E305E4C9CACBFCE8540724
:1000B6006010F8C3E913F9EA13FAEB13FBEC13FC2F
:1000C600D8F130F52FC3E49CFCEF9BFFEE9AFEEDD2
:1000D60099FDD0E0FBEF4E4D4C701222DB0302037C
:1000E60075EC2CFCEF33FFEE33FEED33FDED30E720
:1000F600EB020350EF2BFFEE3AFEED39FDD0E0FBAD
:1001060050130BBB0003020378ED13FDEE13FEEF55
:0801160013FFEC13FC0203507F
:10011E00EC4D6011E8497017ED33EC3304600DE4DB
:10012E00FCFFFEFD22E933E8330470F802036E1281
:10013E00033958046009E4CC248150062850090282
:10014E000378284003020375C0E0EB4A7044B9807F
:10015E0006D0E0FB020364EF4E701CBD8008EBFF7F
:10016E00EAFEE9FD80EBE98DF0A4FEE5F002020760
:10017E00E9CDF9EAFEEBFFEF89F0A4FCE5F0CE89BC
:10018E00F0A42EFFE435F0CD89F0A42DFEE435F079
:10019E008067EF4E7005BD80D780C3EF8BF0A4ACA7
:1001AE00F0EE8BF0A42CFCE435F0F8EF8AF0A42CE2
:1001BE00E5F038FCE433CB8DF0A42CFCE5F03BF8F5
:1001CE00EE8AF0A42CFCE5F038F8E433CF89F0A4E5
:1001DE002CFCE5F038CF3400CE89F0A42FFFE5F0EB
:1001EE003EFEE433C98DF0A42EFEE5F039CD8AF043
:1001FE00A42FFFE5F03EFEE43DFD33D0E0FB5007BB
:10020E000BBB000F020378EC2CFCEF33FFEE33FE3A
:06021E00ED33FD02035068
:10022400020378EC5D046005E85904700302036E70
:10023400120339580460F6EC4860F2EC7004FDFED9
:10024400FF22C860DB2481C85009C39860025006AD
:100254000203759850CAF582E9294B4A7005AB82AE
:1002640002036475F0007C1A7880C3EF9BEE9AED6C
:1002740099400DC3EF9BFFEE9AFEED99FDE842F025
:10028400DC23ACF0D0E0FFD0E0FED0E0FDAB822078
:10029400E7101BEB60BAEC2CFCEF33FFEE33FEED02
:1002A40033FD020350E803F830E705C0F075F000B1
:1002B400EF2FFFEE33FEED33FD40B830E7C280AAE6
:1002C40075F020800E75F010800575F0087D007EB5
:1002D400007F003392D530D5031205BBEC334010B8
:1002E400EF33FFEE33FEED33FDEC33FCD5F0ED22BE
:0E02F400E5F0247EA2D513CC92E7CDCEFF22FA
:10030200EDD2E7CD33EC3392D524814006E4FFFEF3
:10031200FDFC22FCE4CFCECDCC24E0501174FF8052
:10032200EDC3CC13CCCD13CDCE13CECF13CF0470EF
:07033200F030D5DE0205BB2F
:100F88003A70FA83BCAAE9E43E81E0F8BF9DE9E63D
:100F98003F80000039283C1ABB9969663DA335E3B8
:100FA800BF255DE73FC90FDB418DDBCCC44936EE79
:100FB80045C9913FC5B0F83D3F800000C317F534DF
:100FC800452FFA73C60AFDDD12107704A2E19200DC
:100FD8001420E015900F88740412038380261210E1
:100FE8007730E102B20020E0EB8C3C8D3D8E3E8FE5
:100FF8003F900F9C7404120383A83CA93DAA3EAB02
:101008003F12011EED4C6007300004EC6480FC22A6
:10101800121077C0E08C3C8D3D8E3E8F3F900FC004
:101028007403120383A83CA93DAA3EAB3F12011EDC
:10103800ECC53CFCEDC53DFDEEC53EFEEFC53FFFF2
:10104800900FB07403120383D082A83CA93DAA3E36
:10105800AB3FE58230E007120227B20080A6EFCB53
:10106800FFEECAFEEDC9FDECC8FC1202278095ED23
:1010780033EC547FCC33920024605007D0E0D0E0AA
:1010880002036E7B837AF97922783E12011EEDF90C
:1010980033ECF83324815011EFFBEEFA12030212FD
:1010A80002C4ECB2E7FC12002DED33EC33602F24C0
:1010B80003F8C313FCED92E7FDE82481E4501FEC2C
:1010C800F8EDF9EEFAEFFB120302EF04C2E0FCF5CB
:1010D800821202CEECB2E7FC12002DE58203FAED93
:0E10E80033EC3360071413FCED92E7FDEA22AF
:10033900E9D2E7C933E833F892D5EDD2E7CD33EC0A
:0703490033FC5002B2D52283
:10035000EC30E7100FBF000C0EBE00080DBD00040E
:100360000BEB6014A2D5EB13FCED92E7FD2274FFBA
:10037000FCFDFEFF22E480F8A2D574FF13FC7D8013
:03038000E480EF27
:10038300C0E0EFFBEEFAEDF9ECF812011ED0E0F558
:10039300F0EFFBEEFAEDF9ECF81205C9A3A3A3A362
:1003A300E8C0E0E9C0E0EAC0E0EBC0E0C0F0120161
:1003B3001E1205D9A3A3A3A312002DD0F0D0E0FBF6
:0D03C300D0E0FAD0E0F9D0E0F8D5F0D42277
:10166C0002181CE493A3F8E493A34003F68001F260
:10167C0008DFF48029E493A3F85407240CC8C3337F
:10168C00C4540F4420C8834004F456800146F6DF4E
:10169C00E4800B0102040810204080901BB2E47E11
:1016AC00019360BCA3FF543F30E509541FFEE49343
:1016BC00A360010ECF54C025E060A840B8E493A30A
:1016CC00FAE493A3F8E493A3C8C582C8CAC583CA35
:1016DC00F0A3C8C582C8CAC583CADFE9DEE780BEED
:011BB500002F
:1003D000E709F608DFFA8046E709F208DFFA803E0F
:1003E00088828C83E709F0A3DFFA8032E309F608FC
:1003F000DFFA8078E309F208DFFA807088828C8364
:10040000E309F0A3DFFA806489828A83E0A3F60817
:10041000DFFA805889828A83E0A3F208DFFA804CF1
:1004200080D280FA80C680D4806980F280338010C8
:1004300080A680EA809A80A880DA80E280CA803331
:1004400089828A83ECFAE493A3C8C582C8CCC583A9
:10045000CCF0A3C8C582C8CCC583CCDFE9DEE78079
:100460000D89828A83E493A3F608DFF9ECFAA9F0F8
:10047000EDFB2289828A83ECFAE0A3C8C582C8CC4E
:10048000C583CCF0A3C8C582C8CCC583CCDFEADE67
:10049000E880DB89828A83E493A3F208DFF980CCC9
:1004A00088F0EF60010E4E60C388F0ED2402B404C2
:1004B0000050B9F582EB2402B4040050AF23234569
:0604C0008223900420736A
:1004C600BB010689828A83E0225002E722BBFE0234
:0904D600E32289828A83E4932267
:1004DF00BB010CE58229F582E5833AF583E02250D2
:1004EF0006E92582F8E622BBFE06E92582F8E2221C
:0D04FF00E58229F582E5833AF583E4932236
:10050C00F8BB010DE58229F582E5833AF583E8F025
:10051C00225006E92582C8F622BBFE05E92582C8D1
:02052C00F222B9
:10052E00BC000BBE0029EF8DF084FFADF022E4CCB1
:10053E00F875F008EF2FFFEE33FEEC33FCEE9DEC7A
:10054E00984005FCEE9DFE0FD5F0E9E4CEFD22EDC0
:10055E00F8F5F0EE8420D21CFEADF075F008EF2F0A
:10056E00FFED33FD4007985006D5F0F222C398FDFB
:05057E000FD5F0EA2298
:10058300BB0110E58229F582E5833AF583E0F5F0B6
:10059300A3E0225009E92582F886F008E622BBFE93
:1005A3000AE92582F8E2F5F008E222E5832AF583D9
:0805B300E993F5F0A3E993229E
:0E05BB00C3E49FFFE49EFEE49DFDE49CFC2251
:1005C900E493FC740193FD740293FE740393FF2278
:1005D900E493F8740193F9740293FA740393FB2278
:00000001FF
