
:1000000018F09FE518F09FE518F09FE518F09FE5C0
:1000100018F09FE50000A0E120FF1FE520FF1FE58D
:1000200040001000D41B1000D01B1000CC1B10008F
:10003000C81B1000000000000000000000000000CD
:10004000B4009FE5B4109FE5081080E5FF00E0E3F1
:10005000AC109FE5601080E5A8009FE50219A0E3C1
:10006000041080E5A0009FE5A0109FE5201080E52A
:10007000682090E5012012E2FCFFFF0A90109FE546
:100080002C1080E5682090E5042012E2FCFFFF0AB6
:100090000710A0E3301080E578009FE5DBF021E356
:1000A00000D0A0E1040040E2D7F021E300D0A0E1BD
:1000B000040040E2D1F021E300D0A0E1040040E2DE
:1000C000D2F021E300D0A0E1800040E2D3F021E3B0
:1000D00000D0A0E1040040E210F021E300D0A0E154
:1000E00034009FE5010010E330E09F0530E09F15EC
:1000F00010FF2FE1FEFFFFEAFEE7C04600FDFFFF15
:10010000010400A50001320040FDFFFF00FCFFFFDD
:1001100001060000051C190090042000510B10007E
:10012000F4001000F90010002A2A2A2A2A2A2A2A72
:100130002A2A2A2A2A2A2A2A2A2A2A2A2A2A2A2A1F
:100140002A2A2A2A2A2A2A2A2A2A2A2A2A2A2A2A0F
:100150002A2A2A2A2A2A2A2A2A2A2A2A2A2A2A2AFF
:100160002A2A2A2A2A2A2A2A2A2A2A2A0D0A000080
:1001700000002A2A2A2A2A2A202020202020202083
:10018000202020202020202032314943204449597A
:100190002055C5CCD1A7CFB0B0E520D6AE20BCD974
:1001A00055C5CC20202020202020202020202020C9
:1001B0002A2A2A2A2A2A0D0A000000002A2A2A2A84
:1001C0002A2A20202020202020202020202020201B
:1001D000202020202020204154393153414D3753D5
:1001E000363420435055202020202020202020205D
:1001F000202020202020202020202A2A2A2A2A2AC3
:100200000D0A000000002A2A2A2A2A2A202020205B
:100210002020202020202020202020202020BDA8B9
:10022000C1A2C8D5C6DAA3BA0000000000000000D1
:1002300000000000000000000000000000000000BE
:1002400000000000000000000000000000000000AE
:100250004D6172203136203230303900000000000C
:10026000000000000000000000000000000000008E
:10027000000000000000000000000000000000007E
:10028000000000000000000000000000000000006E
:10029000000000000000000000002020202020209E
:1002A00020202020202020202020202A2A2A2A2A1C
:1002B0002A0D0A00000000000000000000000000FD
:1002C000000000000000000000000000000000002E
:1002D000000000000000000000000000000000001E
:1002E000000000002A2A2A2A2A2A20202020202052
:1002F00020202020202020202020202020BDA8C138
:10030000A2CAB1BCE4A3BA000000000000000000D3
:1003100000000000000000000000000000000000DD
:100320000000000000000000000000000000313468
:100330003A34343A3333000000000000000000007B
:1003400000000000000000000000000000000000AD
:10035000000000000000000000000000000000009D
:10036000000000000000000000000000000000008D
:10037000000000000000000020202020202020207D
:1003800020202020202020202020202A2A2A2A2A3B
:100390002A0D0A000000000000000000000000001C
:1003A000000000000000000000000000000000004D
:1003B000000000000000000000000000000000003D
:1003C00000002A2A2A2A2A2A202020202020202031
:1003D000202020202020202020202020D7F7D5DF1B
:1003E000A3BAB5E7C4D4C8A6C8A6202020202020E0
:1003F00020202020202020202020202020202020FD
:100400002A2A2A2A2A2A0D0A000000002A2A2A2A31
:100410002A2A2020202020202020202020202020C8
:10042000202020202020BBB6D3ADB7C3CECAD7F73B
:10043000D5DFB5C42020202020202020202020200F
:10044000202020202020202020202A2A2A2A2A2A70
:100450000D0A000000002A2A2A2A2A2A2020202009
:1004600020202020202020555342D7A8C7F8A3BA27
:10047000687474703A2F2F67726F75702E65646E92
:100480006368696E612E636F6D2F39332F202020D2
:10049000202020202A2A2A2A2A2A0D0A00000000C9
:1004A0002A2A2A2A2A2A202020202020424C4F476C
:1004B00031A3BA687474703A2F2F7777772E6564FA
:1004C0006E6368696E612E636F6D2F626C6F672F4C
:1004D000636F6D70757465723030202020202A2A79
:1004E0002A2A2A2A0D0A000000002A2A2A2A2A2A51
:1004F00020202020202020202020202020202020FC
:10050000424C4F4732A3BA687474703A2F2F636F0E
:100510006D707574657230302E323169632E6F7272
:1005200067202020202020202A2A2A2A2A2A0D0A71
:10053000000000002A2A2A2A2A2A2A2A2A2A2A2AC3
:100540002A2A2A2A2A2A2A2A2A2A2A2A2A2A2A2A0B
:100550002A2A2A2A2A2A2A2A2A2A2A2A2A2A2A2AFB
:100560002A2A2A2A2A2A2A2A2A2A2A2A2A2A2A2AEB
:0E0570002A2A2A2A2A2A2A2A0D0A0000000016
:1005800030313233343536373839414243444546C9
:1005900000120110010000000888880821000101F4
:1005A0000203010902200001010080320904000059
:1005B00002080650000705810240000007050202FC
:1005C00040000004030904520335751181085708DF
:1005D000578476550053004200134E3A532000488A
:1005E000007400740070003A002F002F0067007242
:1005F000006F00750070002E00650064006E0063DF
:1006000000680069006E0061002E0063006F006DDD
:10061000002F00390033002F002A03320031004937
:10062000004300200044004900590020005500D834
:1006300076665B604E7F6720004B4E20004750552A
:1006400000D876160332003000300039002D00301B
:090650000033002D0031003600DA
:10065C00000000011F000000B5E7C4D4C8A6C8A65E
:10066C00D7D4BCBAD7F6B5C4BCD955C5CC0000009C
:10067C00312E3031000000080100000003000200A0
:10068C000003FFFF00000200700005000000000ADC
:0A069C000000000020000000000034
:1006A800EB3E904D53444F53352E3000022001004D
:1006B8000200020000F820002000400000000000B6
:1006C8000000040080002988097120C8A6C8A6B5C2
:1006D800C4BCD955C5CC4641543136202020F17DC3
:1006E800FA33C98ED1BCFC7B1607BD7800C57600ED
:1006F8001E561655BF2205897E00894E02B10BFC95
:10070800F3A4061FBD007CC645FE0F8B461888451E
:10071800F9FB3866247C04CD13723C8A461098F79E
:10072800661603461C13561E03460E13D1505289F3
:1007380046FC8956FEB820008B7611F7E68B5E0BD7
:1007480003C348F7F30146FC114EFE5A58BB000795
:100758008BFBB101E894007247382D7419B10B5620
:100768008B763EF3A65E744A4E740B03F983C71565
:100778003BFB72E5EBD72BC9B8D87D87463E3CD802
:100788007599BE807DAC9803F0AC84C074173CFFAB
:100798007409B40EBB0700CD10EBEEBE837DEBE50C
:1007A800BE817DEBE033C0CD165E1F8F048F4402FF
:1007B800CD19BE827D8B7D0F83FF0272C88BC7481F
:1007C800488A4E0DF7E10346FC1356FEBB0007535B
:1007D800B104E816005B72C8813F4D5A75A781BF06
:1007E8000002424A759FEA000270005052519192ED
:1007F80033D2F7761891F776184287CAF7761A8AAD
:10080800F28A56248AE8D0CCD0CC0ACCB80102CDE2
:1008180013595A58720940750142035E0BE2CCC362
:10082800031801270D0A496E76616C696420737993
:100838007374656D206469736BFF0D0A4469736B8B
:1008480020492F4F206572726F72FF0D0A52657032
:100858006C61636520746865206469736B2C206122
:100868006E64207468656E20707265737320616EA3
:1008780079206B65790D0A00494F2020202020201F
:100888005359534D53444F532020205359538001FB
:100898000057494E424F4F5420535953000055AA10
:1008A800F8FFFFFFFFFF000000000000000000004D
:1008B8000000000000000000000000000000000030
:1008C8000000000000000000000000000000000020
:1008D8000000000000000000000000000000000010
:1008E8000000000000000000000000000000000000
:1008F80000000000000000000000000000000000F0
:1009080000000000000000000000000000000000DF
:1009180000000000000000000000000000000000CF
:10092800D5E2CAC7D2BBB8F6B2E2CAD4B3CCD0F2C9
:10093800A3ACD3C3C0B4B2E2CAD4CEC4BCFECFB554
:10094800CDB3CAC7B7F1B9A4D7F7D5FDB3A3A1A34F
:100958000D0AC8E7B9FBC4E3C4DCBFB4B5BDD5E232
:10096800D0A9CEC4D7D6A3ACC4C7C3B4CBB5C3F73C
:10097800C4E3B5C4B5E7C4D4D2D1BEADD6D0C1CBDB
:10098800D7EE0D0ACEDEB3DCB5C4B5E7C4D4C8A62D
:10099800C8A6B2A1B6BEC1CBA3ACC7EBC2EDC9CF46
:1009A800B0D1CBF9D3D0CEC4BCFEC9BEB3FDA3AC85
:1009B800B2A2B8F10D0ACABDBBAFD3B2C5CCBAF367
:1009C800A3ACBDABD3B2C5CCD1B9CBE9A3ACD2D41F
:1009D800C3E2C4E3D2B2B1BBB8D0C8BEA3A1C8E7D2
:1009E800B9FBC4E3D4DA0D0A3330C3EBC4DABBB9BC
:1009F800CEB4BFAACABCC9BEB3FDCEC4BCFEA3ACAC
:100A0800C4E3B5C4B5E7C4D4BDABBBE1D3C0BEC372
:100A1800B1A8B7CFA3A10D0ABBB6D3ADB7C3CECA91
:100A2800CED2C3C7B5C4555342D7A8C7F83A206831
:100A38007474703A2F2F67726F75702E65646E63C9
:100A480068696E612E636F6D2F39332F00C8A6C891
:100A5800A6B5C4BCD955C5CC080000637B133914AE
:100A6800390000AF7C1339000000000000544553E2
:100A780054202020205458540100001A7E133914A1
:0D0A8800390000617E133902002C010000CE
:100A98009004200015052000180520006B05200093
:100AA8006C0520007005200070052000C00520009E
:100AB800000000000000000000000000000000002E
:100AC80030B501201A4908601A490A78151C291CF2
:100AD8000906090E002902D11749086027E01749BD
:100AE80009780C1C2B1C1B061B0E1B19402B04DD44
:100AF8000B1C4025ED1A2D062D0E2B1C0F4CD21A5F
:100B0800A2700D4A10600E4A5218291C0906090ED7
:100B180000F08EFD291C207840182070207840288D
:100B280002DB00210548017001210648017030BD33
:100B38000C00FCFF120520000800FCFF1005200037
:100B48009004200056052000454806C80B1C134396
:100B580005D000230B70491C9142FBD1F5E74148B1
:100B6800C01C0323984306C80B1C134306D0037804
:100B7800401C0B70491C9142F9D1F1E700B500F017
:100B880089F800F0CDF800F00FFE0024211C4A205F
:100B980041433548401800F01BF90134201C0F2848
:100BA800F4DB00F049FC3148046831480440201C5B
:100BB800002835D0201C2F49084204D02D492E4842
:100BC800016000F067F9201C2C49084204D02B4929
:100BD8002948016000F060F9201C012108420DD06D
:100BE800274800684621084201D000F065F92448EA
:100BF80000680121084201D000F060FB201C02219E
:100C0800084201D000F062FB201C0421084201D0F8
:100C180000F064FB201C0821084201D000F0A0FB72
:100C2800184800780028BED017480078002801D15D
:100C3800FFF746FF154800780028B4D0134B5878C2
:100C4800011C1348405C00F0B3F8181C013001780F
:100C580001310170187801381870A4E700BDC0464A
:100C6800980A1000C00A1000280110001C00FBFFA1
:100C78000F110000000100002000FBFF0010000021
:100C88003000FBFF55052000560520001305200005
:100C9800D0042000184919480160812118480160D2
:100CA8001849194801601948006801210842FAD01A
:100CB8001749184801601548006804210842FAD00D
:100CC8001248006808210842FAD00421124801603D
:100CD8000E48006808210842FAD003220E4801682D
:100CE800114301600948006808210842FAD0024906
:100CF8000A4801607047C046FFFFFFFF64FCFFFF22
:100D080000FCFFFF01FF000020FCFFFF68FCFFFF65
:100D18000E3F48102CFCFFFF30FCFFFF10FCFFFFCC
:100D280060211248016012480160124801601248AF
:100D38000160124A12480260502211480260114AAA
:100D480011480260012211480260114A11480260EC
:100D580000221148026011480260114801601149DF
:100D680011480160402111480160704704F4FFFFF9
:100D780044F4FFFF64F4FFFF70F4FFFF0C01000070
:100D88000000FCFFC00810000400FCFF0800FCFF86
:100D9800380100002000FCFF2400FCFF2800FCFFB5
:100DA80018F0FFFFF40D100098F0FFFF20F1FFFF8F
:100DB800011C0548006802221042FAD0081C0106EE
:100DC800090E0248016070471400FCFF1C00FCFF7C
:100DD80010B5041C04E0201C0078FFF7E9FF01347B
:100DE800201C00780028F6D110BDC0461F002DE950
:100DF80080009FE5000090E5060050E31B00001A04
:100E080074009FE5000090E5010010E31400000A5B
:100E180068009FE5002090E5022CA0E1222CA0E1CB
:100E28005C009FE50010D0E50140A0E154309FE54B
:100E38000420C3E7011081E20010C0E50000D0E5FE
:100E4800400050E3020000BA0010A0E330009FE524
:100E58000010C0E530009FE50010D0E5011081E2E8
:100E68000010C0E50010A0E320009FE5001080E519
:100E78001F00BDE804F05EE208F1FFFF1400FCFF6C
:100E88001800FCFF11052000900420001205200026
:100E980030F1FFFF7047C04600B500F0EFFA0020C0
:100EA800044B1870002000F0F3FA00205870987076
:100EB80000BDC0465505200070B5002000F034FB89
:100EC800002800D1BAE1E14A0020102100F03CFBE3
:100ED8000406240E002000F0EDFB002000F0D0FBFB
:100EE800201C082800D0AFE1D8480178D848017004
:100EF800D8480178D8480170D84800780004000C18
:100F08000002D749097809180904090CD548018055
:100F1800D54800780004000C0002D4490978091863
:100F28000904090CD2480180D24800780004000C5A
:100F38000002D149097809180904090CCF48018031
:100F4800C3480478201C8021084200D113E14009DD
:100F580003210840012800D1D9E0022800D173E11B
:100F6800002800D070E1BC480078002800D16BE16F
:100F7800082800D168E10A2800D165E10C2800D1D1
:100F880062E1062800D05FE1B6480688301C000AF6
:100F9800FF252840022828D0032850D0222800D135
:100FA80098E0012800D04FE1B549B6480160B34840
:100FB8000288101CB2490978884211D9B0480078D3
:100FC800011CB1480180B0480088B049097800F098
:100FD800FFFD011C002905D10121AD48017001E088
:100FE800A948028000F0C8F92EE1AA49A548016085
:100FF800A9480078011CA4480180A3480088011C66
:101008000902A648007809180904090C9E480180BD
:101018009D48008899490A88111C81420AD99B4930
:10102800097800F0D5FD011C002905D10121984857
:10103800017001E09448028000F09EF904E1301C40
:10104800284001280ED0022815D003281CD00028DB
:1010580023D193498B48016091480078011C8A4844
:10106800018020E08F49874801608E480078011C84
:101078008548018017E08C49824801608A480078D9
:10108800011C814801800EE088497E48016087483C
:101098000078011C7C48018005E000217A48018025
:1010A80001217B4801707848008874490A88111C1E
:1010B80081420AD97549097800F08AFD011C002986
:1010C80005D101217248017001E06F48028000F0EB
:1010D80053F9B9E000216B48016000216A4801809A
:1010E8006948008865490A88111C81420AD96749FC
:1010F800097800F06DFD011C002905D10121644823
:10110800017001E06048028000F036F99CE0524826
:101118000078FE2812D166495A48016001215A48D0
:10112800018059480088021C54480188081C9042D4
:1011380001D25548018000F01FF905E0002152480E
:1011480001800121524801704F4800884B490A88A4
:10115800111C81420AD94D49097800F039FD011C5A
:10116800002905D101214A48017001E04648028062
:1011780000F002F968E0201C40090321084001281A
:1011880043D0022860D000285ED133480078012877
:101198005AD0032858D0072856D0092812D00B282F
:1011A80052D0052828D1002137480180012138482C
:1011B800017000F0E1F82B480088FF21084000F09A
:1011C8007BF941E027480088011CFF2001400906FF
:1011D800090E384801703748007800F059F9354849
:1011E800007800F077FA002127480180012128487B
:1011F800017000F0C1F827E0002123480180012197
:101208002348017000F0B8F81EE013480078FF2862
:101218000BD100212848017000211B4801800121C1
:101228001B48017000F0A8F80EE000211648018064
:1012380001211748017000F09FF805E00020802187
:1012480000F088FA00F0D6F870BDC04658052000B6
:101258006805200059052000690520005B0520006D
:101268005A052000200520005D0520005C052000AF
:10127800220520005F0520005E05200024052000CF
:10128800910510001805200026052000980510007B
:101298006A052000A3051000A6051000A50510008A
:1012A800C3051000C70510001906100043061000FA
:1012B80090051000550520005405200000B50020B9
:1012C800012100F047FA00F057F800BD00B50120F1
:1012D800012100F03FFA00F063FB00BD30B590B08B
:1012E8001A480078051C002D20D1194A02201F2118
:1012F80000F02AF9041C022000F0C2F9201C0006A4
:10130800000E1F2820D11248007855281CD11148FA
:101318000078532818D110480078422814D10F4873
:101328000078432810D100F05BFA0DE0012D02D1BE
:1013380000F008FB08E000AA0220402100F004F9B0
:10134800041C022000F09CF910B030BD54052000A8
:1013580028052000290520002A0520002B0520004B
:1013680000B50320012100F0F5F9002101480170C2
:1013780000BDC0465705200030B51A480088041C37
:1013880019480078011C8C4211D9184D2A68002090
:1013980000F04EF914480078031C291C0E310A8805
:1013A800D21A0A80011C28684018286018E0002C0E
:1013B80008D0211C0D4C2268002000F039F90020CB
:1013C800E0810DE00A480078012809D1074C22681D
:1013D8000021081C00F02CF90021201C523001705B
:1013E80030BDC046260520009805100018052000CD
:1013F8006A05200000B5044A0020102100F0A4F876
:10140800002000F03DF900BD5805200000B5034953
:1014180003480160034800F0D5F900BD0000010051
:1014280030F4FFFFE80300000149024801607047FB
:101438000000010034F4FFFF00B5002108480160F6
:1014480008490948016009490948016009480160DB
:10145800002109480170FFF7D9FFFFF7E5FF00BD3C
:101468007400FBFFFFFFFFFF1400FBFF00000100FB
:1014780000F4FFFF10F4FFFF550520000E2103487C
:1014880001600021014801607047C0462800FBFF49
:10149800011C081C0006000E002805D10222054880
:1014A80001689143016004E0022202480168114387
:1014B800016070470400FBFF00B5021C0C4801687E
:1014C8000120014205D10A4909680A4B19420ED187
:1014D800F4E7111C0B061B0E07490B4307490B6069
:1014E800111C0906090E002901D000F009F800BDF9
:1014F8001C00FBFF00110000000100000800FBFFBA
:10150800011C081C0006000E002805D10122054810
:1015180001689143016004E0012202480168114317
:10152800016070470400FBFF011C081C0106090E3E
:101538008900044840580421084201D0FF2000E0F7
:10154800002070473000FBFF70B50D1C041C201CE8
:101558000006000EFFF7E8FF002832D1201C010624
:10156800090E89002F48405842210840022818D007
:1015780040281DD0422822D1201C0106090E2A48E5
:10158800405C002806D10121201C03061B0E2648BA
:10159800C15416E00021201C03061B0E2248C1542A
:1015A8000FE00021201C03061B0E1F48C15408E051
:1015B8000121201C03061B0E1B48C15401E000201A
:1015C8002EE0201C0106090E8900164843581B0C02
:1015D8001B061B0E281C0106090E181C0006000E0F
:1015E800884200D92B1C00210FE0201C05062D0E77
:1015F800AD000E4840590006000E0D1C2E06360E92
:10160800151CA85501310906090E181C05062D0ED2
:10161800081C0006000EA842E7D3181C0006000E9E
:1016280070BDC0463000FBFF6C0520005000FBFF7A
:1016380070B50C1C031C00250EE0281C0106090EC1
:10164800101C405C011C181C0606360EB6000B4820
:10165800815101352D062D0E201C0106090E281C6E
:101668000006000E8842E8D3181C0006000E00F0A1
:1016780091F8201C0006000E70BDC0465000FBFF0C
:1016880010B5041C201C0106090E0948405C0028FE
:1016980006D1201C0006000E022100F05BF805E0D0
:1016A800201C0006000E402100F054F810BDC04672
:1016B8006C05200010B5041C201C0006000E8021BB
:1016C80000F028F8201C0006000E042100F042F863
:1016D80010BDC04600B5011C081C0006000E0028FD
:1016E8000FD00020074900F015F80120064900F046
:1016F80011F80220054900F00DF80320044900F014
:1017080009F800BD0080000000860000008200008B
:101718000087000010B481B0041CA4000C4A1259C0
:101728000092009A4F231A4300920B1C009A1A4306
:101738000092009A064B1A51031C9B00044AD25887
:101748000B1C1A400B1C9A42F6D101B010BC704712
:101758003000FBFF10B481B0041CA4000C4A1259DD
:101768000092009A4F231A4300920B1C009A9A4346
:101778000092009A064B1A51031C9B00044AD25847
:101788000B1C1A400B1C9A42F6D001B010BC7047D3
:101798003000FBFF00B5011C081C0006000E1021DC
:1017A800FFF7B8FF00BDC0460721034801600348A2
:1017B800016003480160704700F4FFFF10F4FFFF69
:1017C80030F4FFFF05E005490A1C013A111C002A04
:1017D800FAD1011C01380029F5D17047EC16000038
:1017E80010B501224E48011C2C310A70C07B00281C
:1017F80075D003285FD023281BD025282DD0282872
:101808003FD02A284ED0122872D1464C4648206232
:1018180000F014F96062606A2438002100F02EF9A3
:10182800606A242802D924214048016000F0B8F8F1
:1018380074E03C4C3E48206200F000F96062606A47
:101848000C38002100F01AF9606A0C2802D90C2122
:101858003648016000F0A4F860E0324C3548206258
:1018680000F0ECF86062606A0838002100F006F9C0
:10187800606A082802D908212C48016000F090F815
:101888004CE000F0DBF8274B586200F0E7F8400224
:10189800D8610020002100F0F1F800F02FF900F0E5
:1018A8007FF83BE000F0CAF82349086000200021D7
:1018B80000F0E4F832E01B4C2048206200F0BEF84B
:1018C8006062606A1238002100F0D8F8606A122855
:1018D80002D912211548016000F062F81EE00020CC
:1018E80012490860002100F0C9F800F059F815E025
:1018F800134800788021084203D001210B48016079
:1019080002E000210948016000F098F807490968D9
:10191800401A012100F0B2F800F042F810BDC046AC
:1019280028052000540520005C06100078052000DA
:10193800800610008C0610007C052000940610001C
:101948003405200030B5134D134A02204021FFF71B
:10195800FBFD041C201C0106090E2868401A28609B
:101968000220FFF78DFE08E00020211C0A06120E57
:1019780009498854013C2406240E201C0028F3D170
:1019880004480068002804D100210448016000F0E0
:1019980007F830BD7C052000800520007805200070
:1019A80030B52248006800280AD12148007801286B
:1019B8003BD102201E4908700D2048621D4808626C
:1019C8001A480568402D15D91B4CE26C01204021AE
:1019D800FFF72EFEE06C4030E064206D4038206553
:1019E800E07B282821D11248007801281DD100F079
:1019F80085F81AE00E4C2806000E0106090E226A28
:101A08000120FFF715FE002060622078012807D129
:101A18000221074A11700D2151620649116204E042
:101A2800022802D100210248017030BD780520004B
:101A38005405200047052000280520000648C17AE3
:101A48000902827A89180902427A89180902007AF9
:101A58000918081C7047C046280520000648417C24
:101A68000902827C89180902C27C89180902007D52
:101A78000918081C7047C0462805200010B4031C2C
:101A88005520194A107053205070422090705320EE
:101A9800D0701648007810711548007850711548B4
:101AA8000078907114480078D071181CFF242040E9
:101AB8000006000E1072181C000AFF2420400006C1
:101AC800000E5072181C000CFF2420400006000E67
:101AD8009072181C000EFF2318400006000ED072EA
:101AE800081C107310BC7047470520002C05200007
:101AF8002D0520002E0520002F0520002148016813
:101B0800002902D1204A214802602148814202D19D
:101B1800204A1E4802602048814205D31F4881425E
:101B280002D21F4A194802601C48814202D1194A50
:101B3800164802601B48814205D31B48814202D2E5
:101B4800174A124802601848814202D1174A0F48C2
:101B580002601748814205D31648814202D2104AD2
:101B68000A4802601348814202D1134A07480260BA
:101B78001248814202D90A4A0448026040310148A9
:101B88000160704770052000A80610007405200049
:101B980000020000A80810004002000000420000F7
:101BA800E80810004042000000820000550A1000BA
:101BB8004082000000C2000028091000FFC3000096
:101BC800FEFFFFEAFEFFFFEAFEFFFFEAFEFFFFEA75
:101BD8007847C04600C0A0E30180B0E10A00000ACF
:101BE800A00058E18880A091FCFFFF3A080050E16E
:101BF8000CC0ACE008004020010038E1A880A0112A
:101C0800F9FFFF1A0C10A0E11EFF2FE10010E0E31E
:081C18000000A0E31EFF2FE114
:00000001FF
