:03000000020AA24F
:0C0AA200787FE4F6D8FD7581C9020AE9EE
:10002600596F7572204431322063686970277320D6
:1000360049442069733A20002E20494420697320E0
:10004600636F72726563742120436F6E67726174A9
:10005600756C6174696F6E73210D0A0D0A002E208E
:10006600494420697320696E636F727265637421F7
:10007600205768617420612070697479210D0A0D1A
:100086000A002A2A2A2A2A2A2A2A2A2A2A2A2A2A14
:100096002A2A2A2A2A2A2A2A2A2A2A2A2A2A2A2ABA
:1000A6002A2A2A2A2A2A2A2A2A2A2A2A2A2A2A2AAA
:1000B6002A2A2A2A2A2A2A2A2A2A2A2A2A2A2A2A9A
:1000C6002A2A2A2A2A2A0D0A000000002A2A2A2A6F
:1000D6002A2A202020202020202020A1B6C8A6C819
:1000E600A6BDCCC4E3CDE6555342A1B7D6AE20D3C8
:1000F600C3BBA7D7D4B6A8D2E5B5C4555342C9E801
:10010600B1B820202020202020202A2A2A2A2A2A84
:100116000D0A000000002A2A2A2A2A2A2020202046
:1001260020202020202020202020202020202020C9
:100136002020415438395335322043505520202051
:1001460020202020202020202020202020202020A9
:10015600202020202A2A2A2A2A2A0D0A0000000006
:100166002A2A2A2A2A2A202020202020202020204D
:100176002020202020202020BDA8C1A2C8D5C6DA74
:10018600A3BA00000000000000000000000000000C
:100196000000000000000000000000000000000059
:1001A600000000000000000000004E6F762031368F
:1001B600203230303800000000000000000000004F
:1001C6000000000000000000000000000000000029
:1001D6000000000000000000000000000000000019
:1001E6000000000000000000000000000000000009
:1001F6000000000020202020202020202020202079
:1002060020202020202A2A2A2A2A2A0D0A00000035
:1002160000000000000000000000000000000000D8
:1002260000000000000000000000000000000000C8
:1002360000000000000000000000000000002A2A64
:100246002A2A2A2A20202020202020202020202080
:1002560020202020202020BDA8C1A2CAB1BCE4A332
:10026600BA000000000000000000000000000000CE
:100276000000000000000000000000000000000078
:10028600000000000000000031363A30303A3235C6
:100296000000000000000000000000000000000058
:1002A6000000000000000000000000000000000048
:1002B6000000000000000000000000000000000038
:1002C6000000000000000000000000000000000028
:1002D6000000202020202020202020202020202058
:1002E60020202020202A2A2A2A2A2A0D0A00000055
:1002F60000000000000000000000000000000000F8
:1003060000000000000000000000000000000000E7
:100316000000000000000000000000002A2A2A2A2F
:100326002A2A2020202020202020202020202020B3
:10033600202020202020D7F7D5DFA3BAB5E7C4D4E4
:10034600C8A6C8A62020202020202020202020204B
:10035600202020202020202020202A2A2A2A2A2A5B
:100366000D0A000000002A2A2A2A2A2A20202020F4
:100376002020202020202020202020202020202077
:10038600BBB6D3ADB7C3CECAD7F7D5DFB5C4202029
:100396002020202020202020202020202020202057
:1003A600202020202A2A2A2A2A2A0D0A00000000B4
:1003B6002A2A2A2A2A2A20202020202020202020FB
:1003C60020555342D7A8C7F8A3BA687474703A2F59
:1003D6002F67726F75702E65646E6368696E612E25
:1003E600636F6D2F39332F202020202020202A2ACA
:1003F6002A2A2A2A0D0A000000002A2A2A2A2A2A3C
:10040600202020202020424C4F4731A3BA68747424
:10041600703A2F2F7777772E65646E6368696E6101
:100426002E636F6D2F626C6F672F636F6D707574BF
:1004360065723030202020202A2A2A2A2A2A0D0AEC
:10044600000000002A2A2A2A2A2A202020202020EA
:1004560020202020202020202020424C4F4732A35D
:10046600BA687474703A2F2F636F6D707574657205
:1004760030302E323169632E6F72672020202020A3
:1004860020202A2A2A2A2A2A0D0A000000002A2ABF
:100496002A2A2A2A20202020202020202020B4F2C8
:1004A600BFAAC9CFCEBBBBFAD3A6D3C3C8EDBCFE89
:1004B600A3ACC8BBBAF3B0B44B312D4B38B7D6B1E9
:1004C600F0BDF8D0D0B2E2CAD42020202A2A2A2AA7
:1004D6002A2A0D0A000000002A2A2A2A2A2A2A2A5B
:1004E6002A2A2A2A2A2A2A2A2A2A2A2A2A2A2A2A66
:1004F6002A2A2A2A2A2A2A2A2A2A2A2A2A2A2A2A56
:100506002A2A2A2A2A2A2A2A2A2A2A2A2A2A2A2A45
:100516002A2A2A2A2A2A2A2A2A2A2A2A0D0A0000C6
:0A05260000000000000000000000CB
:100B2E0078217C007D007BFF7A0579287E007F0886
:100B3E001207EDE50D2401F50DE4350CF50CE43549
:100B4E000BF50BE4350AF50A78C5E6F521E50DFF40
:100B5E00E48F22AE0CAD0BAC0A78081208D0E48FED
:100B6E0023AF0DAE0CAD0BAC0A78101208D0E48F8B
:100B7E0024AF0DAE0CAD0BAC0A78181208D0E48F72
:100B8E0025FB7A0079217D087F03120CCA750801B6
:070B9E00E478C9F678C7F600
:010BA500222D
:100C6F00C2AC853021E5217003D2AC22E521252EBF
:100C7F00FFE433FED3EF9440EE648094804006741B
:100C8F0040952EF521C3E5309521F530D2AC747324
:100C9F00252EF9E4FAFBAD217F05120CCAE52125BB
:100CAF002EF52EC394404003E4F52E7F05120F411D
:0A0CBF00EF5460FFBF6003750901E8
:010CC9002208
:1008E300D2AF120E25120E43E4F51DE51D75F04A35
:1008F300A42488F9740035F0FA7BFF120E9E051DBF
:10090300E51DC3941040E412000E8E1E8F1F7BFF63
:100913007A007926120E9EAF1FAE1E120D0AE51F36
:10092300B4120DE51EB410087BFF7A00793E8006F1
:100933007BFF7A007964120E9E120E60120ED1E4D0
:10094300F50F20B24A7FF4120EFB120EF28F20E550
:100953002030E703120022E52030E603120EC1E542
:100963002030E003120530E52030E103120003E5F7
:100973002030E203120DDDE52030E303120F28E5FA
:100983002030E403120DB2E52030E503120F31E508
:100993000F60AFE5087012F53278C9E6700578C7C5
:1009A300E66003120B2E753201E5097003120C6F1A
:1009B300E52F608E7433252CF8E6FF120F1E052CED
:0509C300152F0209459B
:0B0F13005389F0438901D2A9D28C223F
:100E25007590FFE478C5F618F678C8F678C3F678B5
:0E0E3500C6F608F678C9F6120F1375320122C0
:03000B00020C0FD5
:100C0F00C0E0C0D075D000C000C001758CDC758A03
:100C1F0010E5326042E590F478C3F679C3E778C8FF
:100C2F0066600B78C4760018E678C8F6802978C419
:100C3F0006E6C394014020760178C8E678C5F60829
:100C4F00E6F4185678C746F678C5E6F4085678C91C
:100C5F0046F678C5E608F6D001D000D0D0D0E03205
:100EB100303132333435363738394142434445468F
:100E4300C2AF53890F438920759850758DF4758B04
:0D0E5300F4438780D2ACD28ED29CD2AF2265
:03002300020D814A
:100D8100C0E0C0D075D000C000309819C29874730B
:100D9100252DF8A699052DE52DC394404003752D09
:100DA1000005308005C299753100D000D0D0D0E067
:010DB100320F
:0A0F1E008F99753101E53170FC2256
:100E9E00120813FF600C120F1E740129F9E43AFABE
:030EAE0080EE22B1
:100D0A00E4F5277521307522787D057A00EF540FB6
:100D1A0024B1F582EA340EF583E493FC74212DF8AC
:100D2A00A604EEC4F854F0C868FEEFC4540F48FF96
:0D0D3A001DBD01D77B007A007921020E9EBD
:0C0EFB00D2B5C2B68F80D2B67580FF223F
:040EEE00FF120EFBE6
:080EF200C2B5C2B7AF80D2B750
:010EFA0022D5
:10000E007FFD120EFB120EF2AD077C00120EF2EF08
:03001E00FEAF052D
:0100210022BC
:0C0F0700C2B5C2B68F80D2B67580FF2242
:070F3A00EF2440120EEE222D
:030F5900020EFB8A
:050F4F007FF2020EFB21
:100E76007F01120F597FF1120EFBE4FF120F597F0B
:040E8600F1020EFB6C
:060D47008B298A2A892B8A
:100D4D00120F597FF0120EFB120EF2120EF2EFD3AC
:100D5D009D4002AF05E4FEEEC39F5017C2B7AB290D
:100D6D00AA2AA92B8E82758300E580120859D2B765
:030D7D000E80E401
:010D80002250
:050F54007FFA020EFB14
:080CCA008B298A2A892BAE0553
:100CD200120F597FF0120EFBE4FF120F07AF06123C
:100CE2000F07FFEFC39E5017C2B6AB29AA2AA92B42
:100CF2008F8275830012082CF580D2B60F80E475BE
:070D020080FF120F54AF0641
:010D090022C7
:0E0EE000AE077FD0120EFBEE4480FF020F071C
:100E8A00AE077FD8120EFBEE60047F018002E4FFFA
:040E9A00120F07220A
:070F4100EF2480120EEE22E6
:1009C80012011001FF00001088880B0000010102CD
:1009D800030109022E00010100803209040000040D
:1009E800000000000705810310000A070501031035
:1009F800000A0705820240000007050202400000C5
:100A08000403090452033575118108570857847681
:100A1800550053004200134E3A532000480074001A
:100A2800740070003A002F002F00670072006F00FA
:100A3800750070002E00650064006E006300680099
:100A480069006E0061002E0063006F006D002F00CA
:100A5800390033002F002E030A300857085759650C
:100A6800604FA9735500530042000B304B4E287558
:100A78003762EA819A5B494E8476550053004200FA
:100A8800BE8B0759160332003000300038002D00A5
:0A0A9800300038002D00320032005B
:060F4800040A0000000095
:100E0500E4FDFCC3ED9FEC9E5015E4FBFA0BBB0023
:0F0E1500010AEB64E34A70F50DBD00010C80E4A7
:010E240022AB
:100E60007FF3120EFB7F06120F077F47120F077FDB
:060E7000E87E03020E05FE
:0F0ED1007FF3120EFB7F16120F077F47020F07EA
:0100220022BB
:100EC100E4F508F509F52EF52DF530F52FF52C2271
:100BA6009009CFE493FDFFD3E5149FE5139400402D
:100BB60029AB19AA1AA91B7F01120CCA9009CFE406
:100BC60093FF7E00C3E5149FF514E5139EF513EF1E
:100BD600251BF51BEE351AF51A22E514451360138D
:100BE600AD14AB19AA1AA91B7F01120CCAE4F5139E
:100BF600F51422E51CB40110AB19AA1AA91BE4FDD1
:090C06007F01120CCAE4F51C2266
:10053000E4FF120F3AEF20E50302070C7B007A007C
:1005400079B37D10E4FF120D47120E76120F4F782B
:10055000B3E6F51208E6F50E78B6E6FE18E67C007E
:100560002400F518EC3EF51778B8E6FE18E62400EE
:10057000F516EC3EF51578BAE6FE18E62400F511FE
:10058000EC3EF510E51220E7030206C1C413540344
:10059000600302071CE50E24FA600302071CE5173E
:1005A00024FE604D1470030206402402600302071B
:1005B0001C7519FF751A09751BC89009C8E493FFCB
:1005C0007E00D3E5119FE5109E401D8E138F149081
:1005D00009CFE493FD7C00AE13AF1412087BED4C01
:1005E000705B751C01020709851013851114020741
:1005F000097519FF751A09751BDA9009DDE4937501
:100600001300F514E514FE9009DCE4937C0024004B
:10061000F514EC3EF513D3E5119514E51095134050
:10062000169009CFE493FDAE13AF1412087BED4C86
:10063000700B751C018006851013851114020709C3
:10064000E51814601814602314602E2403703F759D
:1006500019FF751A0A751B08900A0880287519FF7A
:10066000751A0A751B0C900A0C801A7519FF751AF9
:100670000A751B5E900A5E800C7519FF751A0A7563
:100680001B8C900A8CE493751300F5148008E4F534
:1006900013F514751C01D3E5119514E5109513405D
:1006A000189009CFE493FD7C00AE13AF1412087BC1
:1006B000ED4C700B751C018006851013851114809C
:1006C00048E512C413540314603104704FE50E243E
:1006D000F7601524047045AF18E518120EE0E4F534
:1006E00013F514751C018021E518F50FAF0F120EDC
:1006F0008AE4F513F514751C01800EE50E24F670DE
:100700001BE4F513F514751C01020BA67B007A009F
:0D07100079B37D10E4FF120D47120F4F2248
:080003007F01120F3A020BA667
:100DDD007F02120F3A7B007A0079217D087F021283
:100DED000D47120F4FE521F4F5A0E5226009E4F55A
:070DFD000DF50CF50BF50AE2
:010E040022CB
:090F28007F03120F3AE4F50822E0
:100DB200E52F70267F04120F41EF546064606005D6
:100DC2007F04120F3A7B007A0079337D407F041250
:0B0DD2000D478F2F120F4FE4F52C226D
:090F31007F05120F3AE4F50922D4
:100AAE000208E3E493A3F8E493A34003F68001F273
:100ABE0008DFF48029E493A3F85407240CC8C33349
:100ACE00C4540F4420C8834004F456800146F6DF18
:100ADE00E4800B0102040810204080900F48E47E51
:100AEE00019360BCA3FF543F30E509541FFEE4930D
:100AFE00A360010ECF54C025E060A840B8E493A3D4
:100B0E00FAE493A3F8E493A3C8C582C8CAC583CAFE
:100B1E00F0A3C8C582C8CAC583CADFE9DEE780BEB6
:010F4E0000A2
:10071D00E709F608DFFA8046E709F208DFFA803EBE
:10072D0088828C83E709F0A3DFFA8032E309F608AB
:10073D00DFFA8078E309F208DFFA807088828C8313
:10074D00E309F0A3DFFA806489828A83E0A3F608C7
:10075D00DFFA805889828A83E0A3F208DFFA804CA1
:10076D0080D280FA80C680D4806980F28033801078
:10077D0080A680EA809A80A880DA80E280CA8033E1
:10078D0089828A83ECFAE493A3C8C582C8CCC58359
:10079D00CCF0A3C8C582C8CCC583CCDFE9DEE78029
:1007AD000D89828A83E493A3F608DFF9ECFAA9F0A8
:1007BD00EDFB2289828A83ECFAE0A3C8C582C8CCFE
:1007CD00C583CCF0A3C8C582C8CCC583CCDFEADE17
:1007DD00E880DB89828A83E493A3F208DFF980CC79
:1007ED0088F0EF60010E4E60C388F0ED2402B40472
:1007FD000050B9F582EB2402B4040050AF23234519
:06080D00822390076D73C9
:10081300BB010689828A83E0225002E722BBFE02E3
:09082300E32289828A83E4932216
:10082C00BB010CE58229F582E5833AF583E0225081
:10083C0006E92582F8E622BBFE06E92582F8E222CB
:0D084C00E58229F582E5833AF583E49322E5
:10085900F8BB010DE58229F582E5833AF583E8F0D5
:10086900225006E92582C8F622BBFE05E92582C881
:02087900F22269
:10087B00BC000BBE0029EF8DF084FFADF022E4CC61
:10088B00F875F008EF2FFFEE33FEEC33FCEE9DEC2A
:10089B00984005FCEE9DFE0FD5F0E9E4CEFD22ED70
:1008AB00F8F5F0EE8420D21CFEADF075F008EF2FBA
:1008BB00FFED33FD4007985006D5F0F222C398FDAB
:0508CB000FD5F0EA2248
:1008D000E8600FECC313FCED13FDEE13FEEF13FF06
:0308E000D8F1222A
:00000001FF
