:030000000208CD26
:0C08CD00787FE4F6D8FD7581B6020914AE
:100ACD00D2AF120EA6120DA88E318F32120D491211
:100ADD000D92120DF5E4F52320B24A7FF4120E2B80
:100AED00120E168F33E53330E703120EACE53330BB
:100AFD00E603120E61E53330E003120026E53330D4
:100B0D00E103120E69E53330E203120E71E5333065
:100B1D00E303120E58E53330E403120B9FE5333037
:090B2D00E503120D63E52380AF1E
:030EA600C2AF22B6
:03002300020E1FAB
:0C0E1F00309803C29832C299753A003234
:0C0E2B00D2B5C2B68F80D2B67580FF220F
:040E1200FF120E2B92
:080E1600C2B5C2B7AF80D2B72C
:010E1E0022B1
:100DA8007FFD120E2B120E16AD077C00120E16EFE9
:030DB800FEAF0586
:010DBB002215
:0C0E3700C2B5C2B68F80D2B67580FF2213
:070E8100EF2440120E1222C3
:030EA900020E2B0B
:050E9C007FF2020E2BA5
:100DBC007F01120EA97FF1120E2BE4FF120EA97FF8
:040DCC00F1020E2BF7
:060CB0008B368A378938FB
:100CB600120EA97FF0120E2B120E16120E16EFD37D
:100CC6009D4002AF05E4FEEEC39F5017C2B7AB3698
:100CD600AA37A9388E82758300E580120430D2B710
:030CE6000E80E499
:010CE90022E8
:050EA1007FFA020E2B98
:080C70008B368A378938AE0586
:100C7800120EA97FF0120E2BE4FF120E37AF0612E8
:100C88000E37FFEFC39E5017C2B6AB36AA37A93846
:100C98008F82758300120403F580D2B60F80E47545
:070CA80080FF120EA1AF0650
:010CAF002222
:0E0E0400AE077FD0120E2BEE4480FF020E3799
:100DD000AE077FD8120E2BEE60047F018002E4FF85
:040DE000120E372296
:070E8800EF2480120E12227C
:1005EC0000120110010000001088880A00000101AF
:1005FC0002030109022000010100803209040000FD
:10060C00020806500007058202400000070502029E
:10061C004000000403090452033575118108570882
:10062C00578476550053004200134E3A532000482D
:10063C00007400740070003A002F002F00670072E5
:10064C00006F00750070002E00650064006E006382
:10065C0000680069006E0061002E0063006F006D81
:10066C00002F00390033002F0028030A30085708E8
:10067C00575965604FA9735500530042000B304B1E
:10068C004E20005500530042006C8F490044004539
:10069C0000160332003000300038002D00300038D6
:0706AC00002D0032003100B7
:10000300E4FDFCC3ED9FEC9E5015E4FBFA0BBB0033
:0F001300010AEB64E34A70F50DBD00010C80E4B7
:0100220022BB
:100D92007FF3120E2B7F06120E377F47120E377F1C
:060DA200E87E03020003DD
:0F0DF5007FF3120E2B7F16120E377F47020E3739
:010EAC002223
:080E6100E4F51FF520F5212244
:100B36009005F4E493FDFFD3E5289FE52794004054
:100B460029AB2DAA2EA92F7F01120C709005F4E473
:100B560093FF7E00C3E5289FF528E5279EF527EF3E
:100B6600252FF52FEE352EF52E22E5284527601385
:100B7600AD28AB2DAA2EA92F7F01120C70E4F52704
:100B8600F52822E530B40110AB2DAA2EA92FE4FDDD
:090B96007F01120C70E4F530221D
:10002600E4FF120E81EF20E5030202447B007A0012
:10003600799A7D10E4FF120CB0120DBC120E9C785A
:100046009AE6F52608E6F522789DE6FE18E67C0097
:100056002400F52CEC3EF52B789FE6FE18E62400EE
:10006600F52AEC3EF52978A1E6FE18E62400F525EA
:10007600EC3EF524E52620E7030201EAC413540307
:100086001470030201BF046003020254E52224FA3D
:100096006003020254E52B24FE604D147003020136
:1000A6003D24026003020254752DFF752E05752F3F
:1000B600ED9005EDE493FF7E00D3E5259FE5249EB4
:1000C600401D8E278F289005F4E493FD7C00AE2713
:1000D600AF28120452ED4C705B7530010202418567
:1000E6002427852528020241752DFF752E05752FBB
:1000F600FF900602E493752700F528E528FE900692
:1001060001E4937C002400F528EC3EF527D3E52591
:100116009528E524952740169005F4E493FDAE272F
:10012600AF28120452ED4C700B7530018006852401
:1001360027852528020241E52C1460181460231433
:10014600602E2403703F752DFF752E06752F1F90A8
:10015600061F8028752DFF752E06752F2390062302
:10016600801A752DFF752E06752F75900675800CF5
:10017600752DFF752E06752F9D90069DE4937527A8
:1001860000F5288008E4F527F528753001D3E52524
:100196009528E524952740189005F4E493FD7C0006
:1001A600AE27AF28120452ED4C700B753001800655
:1001B600852427852528020241E5222402600302C0
:1001C6000254752DFF752E05752FEC7527007528C1
:1001D60001C3E5259528E52495275006852427851E
:1001E60025288057E526C413540314603F04705E27
:1001F600E52224F7601924FE602824067050AF2CEF
:10020600E52C120E04E4F527F528753001802CE55F
:100216002CF523AF23120DD0E4F527F52875300110
:100226008019E4F527F528753001800FE522047062
:100236001DE4F521F527F528753001020B367B0004
:0F0246007A00799A7D10E4FF120CB0120E9C2200
:080E69007F01120E81020B361D
:080E71007F02120E81020E9CAB
:090E58007F03120E81E4F51F2254
:100B9F007F04120E88EF5460646060057F04120EAC
:100BAF0081E5217030FB7A00797B7D1F7F04120C69
:100BBF00B08F34120E9CE534641F7021787BE6648D
:100BCF0055701A08E6B4531508E6B4421008E6B497
:0D0BDF00430B020255E521B4010312051A73
:010BEC0022E6
:100D63007F05120E811206B37F05120E88EF54061B
:080D7300640660031206B322BE
:100BED00000000011F000000B5E7C4D4C8A6C8A6C8
:100BFD00D7F6B5C4555342D7AA4944450000000065
:100C0D00312E3031000000081400000003000200F6
:100C1D00700005000000000A000000002000000028
:020C2D000000C5
:0A0E4300080C00000000000002008F
:100826007886E6FFE48F38F537F536F535FF7E0135
:10083600FDFCAB38AA37A936A8351204A7C004A90F
:1008460005AA06AB077885E6FFE4FCFDFED000EBC3
:100856002FF538EE3AF537ED39F536EC38F535E45F
:10086600FF0EAB38AA37A936A8351204A7C004A9CB
:1008760005AA06AB077884E6FFE4FCFDFED000EB94
:100886002FF538EE3AF537ED39F536EC38F535E42F
:10089600FF0EAB38AA37A936A8351204A7C004A99B
:1008A60005AA06AB077883E6FFE4FCFDFED000EB65
:1008B6002FF538EE3AF537ED39F536EC38F535AF34
:0608C60038AE37AD36FC30
:0108CC002209
:080777008F178E168D158C14EE
:10077F00788CE6FFE48F38F537F536F535FF7E01D7
:10078F00FDFCAB38AA37A936A8351204A7C004A9B7
:10079F0005AA06AB07788DE6FFE4FCFDFED000EB63
:1007AF002FF538EE3AF537ED39F536EC38F535E407
:1007BF00FF0EAB38AA37A936A8351204A7C004A973
:1007CF0005AA06AB07788EE6FFE4FCFDFED000EB32
:1007DF002FF538EE3AF537ED39F536EC38F535E4D7
:1007EF00FF0EAB38AA37A936A8351204A7C004A943
:1007FF0005AA06AB07788FE6FFE4FCFDFED000EB01
:10080F002FF538EE3AF537ED39F536EC38F535AFDB
:06081F0038AE37AD36FCD7
:0108250022B0
:1009DF00FFE51634FFFEE51534FFFDE51434FFFC8B
:0309EF00E4F539F3
:1009F2008F388E378D368C3578AA7655087653081F
:100A02007642087653787FE678AEF67880E678AF5D
:100A1200F67881E678B0F67882E678B1F6E538FFC6
:100A2200E408A607AF38AE37AD36AC357808120504
:100A320007E478B3A607AF38AE37AD36AC357810D9
:100A4200120507E478B4A607AF38AE37AD36AC3539
:0D0A5200781812050778B5A60708A6392206
:10095900E50BFFE50A5401FEE4FDFCFBFAF9F8C3D7
:100969001204F670357F01120E8FAF1EAE1DAD1C3D
:10097900AC1B120A5FE51E2401F51EE4351DF51DA9
:10098900E4351CF51CE4351BF51B7F20120E4E7F48
:1009990090120D7B75A0FF7590FFE4FF30B4FDC286
:1009A900B1743B2FF8A6900F743B2FF8A6A0D2B1D3
:1009B9000FEFC3944040E5E50B2440F50BE4350AFD
:1009C900F50AE43509F509E43508F50875180075DF
:0509D9001900751A3B36
:0109DE0022F6
:1006B300E4FFFEFDFCAB17AA16A915A814C3120488
:1006C300F6701DE52164016003020776752102754A
:1006D300170DF516F515F514F518751900751AAA01
:1006E300E47F40FEFDFCAB17AA16A915A814D3128C
:1006F30004F64041AB18AA19A91A7D407F05120CD4
:10070300707440251AF51AE43519F519C3E51794E1
:1007130040F517E5169400F516E5159400F515E573
:10072300149400F514788AE664287047E52164017F
:100733007041020959AD17AB18AA19A91A7F0512FE
:100743000C70E4F517F516F515F5147F98120D7B6B
:10075300E521B40116752102E475170DF516F5159B
:10076300F514F518751900751AAA22E521B40203C8
:04077300E4F5212266
:10025500752101788AE670030203BC24FD70030250
:10026500038124E0605824FE70030202FF24FD7020
:100275000302033B24FE700302036124186003029A
:1002850003D07518FF75190B751AED1208268F170F
:100295008E168D158C14E51724DC1209DFE47F24F6
:1002A500FEFDFCAB17AA16A915A814D31204F64037
:1002B50046E4751724F516F515F5140203BA7518F5
:1002C500FF75190C751A111208268F178E168D15C4
:1002D5008C14E51724F41209DFE47F0CFEFDFCAB5A
:1002E50017AA16A915A814D31204F6400AE475171F
:1002F5000CF516F515F5140203BA751800751900F5
:10030500751A0C1208268F178E168D158C14E51785
:1003150024F81209DFE47F08FEFDFCAB17AA16A935
:1003250015A814D31204F6400AE4751708F516F556
:1003350015F5140203BA1208261207778F1E8E1DB3
:100345008D1C8C1BE4F50BF50AF509F508F539FF4D
:10035500FEFDFC1209F21209590203FF12082612CA
:1003650007778F1E8E1D8D1C8C1BE4F50BF50AF58A
:1003750009F508F539FFFEFDFC0209F27518FF7550
:10038500190C751A1D1208268F178E168D158C14CB
:10039500E51724EE1209DFE47F12FEFDFCAB17AA78
:1003A50016A915A814D31204F6400AE4751712F518
:1003B50016F515F5148043E4F517F516F515F5143E
:1003C500F539FFFEFDFC1209F2802F7887E630E74C
:1003D50006E47517018003E4F517F516F515F51410
:1003E500120826C3EF9517FFEE9516FEED9515FD40
:0E03F500EC9514FC7539011209F21206B322C0
:10051A007B007A00793B7D407F04120CB08F35ABAB
:10052A0007C3E5179BF517E5169400F516E515942C
:10053A0000F515E5149400F514120E9CE50BFFE581
:10054A000A5401FEE4FDFCFBFAF9F8C31204F67042
:10055A0032120E79AF1EAE1DAD1CAC1B120A5F7FA4
:10056A0001120E8FE51E2401F51EE4351DF51DE46A
:10057A00351CF51CE4351BF51B7F30120E4E7F909F
:10058A00120D7BE4FCFDFEE50B2535F50BEE350A75
:10059A00F50AED3509F509EC3508F508E4FFEFC36E
:1005AA009535501F30B4FDC2B0743B2FF8E6F59074
:1005BA000F743B2FF8E6F5A0D2B07590FF75A0FF37
:1005CA000F80DBE4FFFEFDFCAB17AA16A915A814E1
:1005DA00C31204F6700B120E797F98120D7B120665
:0105EA00B35D
:0105EB0022ED
:100D7B007590FF75A0FF7E05DEFE8F90D2B3C2B3D8
:060D8B007590FF75A0FF4A
:010D9100223F
:100D13007F18120D7B7FC87E001200037F98120D8F
:0C0D23007B7FC87E0012000330B4FD226C
:100CEA0030B4FD120D7B7590FF75A0FFC2B1AFA0A5
:100CFA00EFFEAD907C00E42DFFEC3EAD07FCD2B1D7
:080D0A007F98120D7BFEAF057E
:010D120022BE
:100D2F0030B4FD120D7B7590FF75A0FFC2B1AD9071
:090D3F00D2B17F98120D7BAF05C3
:010D48002288
:100DE40030B4FD120D7BC2B08D90D2B07F98020D4D
:010DF4007B83
:060E96007F97120D2F22D0
:080E7900120E96EF20E7F922AA
:0A0E4E00AD077F97120DE4020E7944
:100C2F007FEC120E4EE4FBFA7F90120CEA0BBB0026
:100C3F00010AEB64394A70F07F90120CEA8F0F8E25
:100C4F000E7F90120CEA8F0D8E0C7A007B3B7F90FB
:100C5F00120CEA0BBB00010AE4B503F2EAB401EE91
:010C6F002262
:100A5F008F398E388D378C36E539F539E538F538DD
:100A6F00E537F537E536540FF536E539F539E5381D
:100A7F00F538E537F537E53644E0F536AF39AE38BA
:100A8F00AD37FC7818120507AD077F96120DE4AF4E
:100A9F0039AE38AD37AC367810120507AD077F95F4
:100AAF00120DE4AF39AE38AD37AC36780812050702
:0E0ABF00AD077F94120DE4AD397F93020DE474
:070E8F00AD077F92020DE4A4
:100D4900120D13120E797DE07F96120DE4120E79C1
:0A0D59007DFA7F8E120DE4020C2FCC
:1008D900020ACDE493A3F8E493A34003F68001F25E
:1008E90008DFF48029E493A3F85407240CC8C33320
:1008F900C4540F4420C8834004F456800146F6DFEF
:10090900E4800B0102040810204080900E43E47E2D
:10091900019360BCA3FF543F30E509541FFEE493E3
:10092900A360010ECF54C025E060A840B8E493A3AA
:10093900FAE493A3F8E493A3C8C582C8CAC583CAD5
:10094900F0A3C8C582C8CAC583CADFE9DEE780BE8D
:010E4D0000A4
:10040300BB010CE58229F582E5833AF583E02250AE
:1004130006E92582F8E622BBFE06E92582F8E222F8
:0D042300E58229F582E5833AF583E4932212
:10043000F8BB010DE58229F582E5833AF583E8F002
:10044000225006E92582C8F622BBFE05E92582C8AE
:02045000F22296
:10045200BC000BBE0029EF8DF084FFADF022E4CC8E
:10046200F875F008EF2FFFEE33FEEC33FCEE9DEC57
:10047200984005FCEE9DFE0FD5F0E9E4CEFD22ED9D
:10048200F8F5F0EE8420D21CFEADF075F008EF2FE7
:10049200FFED33FD4007985006D5F0F222C398FDD8
:0504A2000FD5F0EA2275
:1004A700E88FF0A4CC8BF0A42CFCE98EF0A42CFCF4
:1004B7008AF0EDA42CFCEA8EF0A4CDA8F08BF0A472
:1004C7002DCC3825F0FDE98FF0A42CCD35F0FCEBD1
:1004D7008EF0A4FEA9F0EB8FF0A4CFC5F02ECD3996
:0F04E700FEE43CFCEAA42DCE35F0FDE43CFC2203
:1004F600EB9FF5F0EA9E42F0E99D42F0E89C45F05C
:0105060022D2
:10050700E8600FECC313FCED13FDEE13FEEF13FFD2
:03051700D8F122F6
:00000001FF
