:040000000C94B600A6
:100004000C9400000C9400000C9400000C9400006C
:100014000C9400000C9400000C9400000C9400005C
:100024000C9400000C9400000C9400000C9400004C
:100034000C9400000C9400000C9400000C9400003C
:100044000C9400000C9400000C9400000C9400002C
:100054000C94E6010C9400000C942B020C94000008
:100064000C9400000C9400000C9400000C9400000C
:100074001201100102000008888802220001010216
:100084000301090243000201008032090400000157
:1000940002020100052400100105240100000424CB
:1000A400020205240600010705810310000A090461
:1000B4000100020A00000007058302400000070552
:1000C4000402400000000403090452033575118141
:1000D400085708578476550053004200134E3A538C
:1000E400200048007400740070003A002F002F00B4
:1000F400670072006F00750070002E0065006400D8
:100104006E006300680069006E0061002E006300E9
:100114006F006D002F00390033002F0026030A30D2
:10012400085708575965604FA9735500530042009A
:100134000B304B4E20005500530042006C8F324E62
:10014400E353160332003000300039002D00300034
:1001540035002D003100310080250000000008002A
:10016400070022025C010000F894EE27EFBBF1E0E7
:10017400F5BFE5BFF8E1A895A4B7A77FA4BFF093A6
:100184006000E09360008DE0A2E0BB27ED938A95C8
:10019400E9F780E092E0A0E0B1E0ED930197E9F7A0
:1001A400E4E6F1E085919591009761F0A591B59110
:1001B40005901590BF01F00105900D920197E1F7AC
:1001C400FB01F0CFE0E0EEBBEFEFEDBFE2E0EEBF0E
:1001D400C0E8D1E00C9424011A93F894109103021E
:1001E400103011F478942CC0A0910102A10FA13415
:1001F40028F0A0910102E0E4EA1B1E2FE091030223
:10020400E11BE09303027894E3E0EA931A93E0910C
:100214000102F0E0EF57FE4FFA93EA930E943F0782
:10022400E12FA0910102EA0FE0930102A0910102E3
:10023400A03418F0E0E0E0930102E1E0E09308026A
:1002440019910895F894E0E0E4BFE4B7E77FE4BFD0
:10025400E0916000E861E0936000E0E0E09360001A
:100264000E94DC0178D00E941B022E9A0E944F0249
:100274000E946506E091E100E17029F0EEEFE09361
:10028400E1000E949902E091E100E87029F0E7EFB3
:10029400E093E1000E949A02E0E0E093E900E0913B
:1002A400E800EC7011F00E942A04A0910902B091B8
:1002B4000A02109721F4E0910B02E03031F0E09152
:1002C400E800E17011F00E942106E1E0E093E9000A
:1002D400E091E800E17011F00E942306E2E0E0936F
:1002E400E900E091E800E47011F00E942A06E3E0DE
:1002F400E093E900E091E800E17011F00E9431061A
:10030400E4E0E093E900E091E800E47011F00E9479
:100314003806E0910602E030E1F0E0910802E030B6
:1003240009F45ADFE0910402E03099F0E09105020B
:10033400F0E0EF53FE4FE081EA930E946002E09107
:100344000502EF5FE0930502E0910402E150E093BF
:10035400040290CFFFCFE4B1E06CE4B9E5B1EF73F0
:10036400E5B908952497EC81FD816E817F813197F1
:1003740060407040EC83FD836E837F83EF5FFF4FAB
:100384006F4F7F4FA9F0E0E2F3E060E070E0E883B4
:10039400F9836A837B83E881F9816A817B81319760
:1003A40060407040E883F9836A837B83A1F7DBCFE5
:1003B40028960895E5E0E093D000E0E8E09361003A
:1003C400E0E0E09361000895AA93EA93EFB7EA931B
:1003D400E1EBE6BDE0910D02EF5FE0930D02A09129
:1003E4000D02A93108F1E0E0E0930D02E0918001F3
:1003F400E03099F0E0910C02E03011F02F9A01C046
:100404002F98E0910C020E948A07E0930C02E0917D
:100414008001E150E093800107C0E0910602E030E2
:1004240011F02F9A01C02F98E991EFBFE991A9919A
:100434001895E0E0E4BDE5E0E5BDE1EBE6BDE0E014
:10044400E7BDE8BDE0916E00E160E0936E00789452
:100454000895AA93BA93EA93EFB7EA93A09102029C
:10046400B0E0AF57BE4FE091CE00EC93E0910202B2
:10047400EF5FE0930202A0910202A03418F0E0E0E2
:10048400E0930202E0910302EF5FE0930302E9913B
:10049400EFBFE991B991A9911895E0E0E093C80004
:1004A400E8E9E093C900E6E0E093CA00E0E0E09305
:1004B400CD00E7E6E093CC00539A0895E091C8009C
:1004C400E072E1F3E881E093CE000C943D071A93C7
:1004D4000A93EA81FB816C817D810E945A08A0E025
:1004E400B4E284E799E40E94DD08DF01CB01E0E097
:1004F400F0E060E07FE30E94E7070E948D080E941D
:1005040021088F01E12FE093CD000093CC00F80186
:10051400319666277727A0E4B2E48FE090E00E944A
:10052400C707EA83FB836C837D830C942C070895AF
:100534000E948106E0E0E0930602EA930E94980696
:10054400E0E0E0930B02E0E0F0E0E0930902F093D6
:100554000A02E093070286C3EBE7F0E0E491A0917E
:100564000902B0910A02F0E0EA17FB0710F00C94BC
:100574002303E0911E02F0911F026091200270910A
:100584002102E070F07060707F7FE030A0E0FA0735
:10059400A0E06A07A1E07A07B9F4E0E0EA93EBE7A8
:1005A400F0E0E491EA93E0911E02F0911F02609161
:1005B400200270912102EF7FFF7F60707070FA93C8
:1005C400EA930E943F0716C0E0E0EA93EBE7F0E00D
:1005D400E491EA93E0911E02F0911F0260912002DF
:1005E40070912102EF7FFF7F60707070FA93EA933D
:1005F4000E945207EBE7F0E0E491A0910902B09168
:100604000A02F0E0AE1BBF0BA0930902B0930A02EA
:10061400EBE7F0E0E491A0911E02B0911F028091FB
:10062400200290912102FF27662777270E946C07FA
:10063400E0931E02F0931F02609320027093210244
:100644005EC0E0910902F0910A02309711F40C9413
:100654007103E0911E02F0911F02609120027091DB
:100664002102E070F07060707F7FE030A0E0FA0754
:10067400A0E06A07A1E07A07B1F4E0E0EA93E09130
:100684000902EA93E0911E02F0911F026091200298
:1006940070912102EF7FFF7F60707070FA93EA938C
:1006A4000E943F0715C0E0E0EA93E0910902EA9353
:1006B400E0911E02F0911F026091200270912102CC
:1006C400EF7FFF7F60707070FA93EA930E94520785
:1006D400E0E0F0E0E0930902F0930A0210C0A09178
:1006E4000B02A13061F4E0E0EA93EA93E0E0F0E089
:1006F400FA93EA930E943F07E0E0E0930B02089527
:10070400E1E2E51519F4E0E2E41509F094C0259757
:10071400E0E0EA93E7E0EA93E2E2F2E0FA93EA93B4
:100724000E941307E883EBEFE093E800A881A73069
:1007340011F00C941304E0912502FF276627772714
:10074400E983FA836B837C83A981BA818B819C8141
:10075400E8E00E947907DF01CB01E0912402FF2742
:10076400662777270E946C07E983FA836B837C836F
:10077400A981BA818B819C81E8E00E947907DF011D
:10078400CB01E0912302FF27662777270E946C079D
:10079400E983FA836B837C83A981BA818B819C81F1
:1007A400E8E00E947907DF01CB01E0912202FF27F4
:1007B400662777270E946C07E983FA836B837C831F
:1007C4000E94E20784DEE983FA836B837C83EF7FF4
:1007D400F07060707070E0932202E981FA81EF2F6B
:1007E400EF7FF07060707070E0932302E981FA810A
:1007F4006B817C810E948507EF7FF0706070707060
:10080400E0932402EC81EF7FF07060707070E093ED
:100814002502E0E0E0932602E0932702E8E0E0937B
:100824002802E0E0EA93EA93E0E0F0E0FA93EA9346
:1008340024D325960CC0E0E0EA93E0E1EA93EEE0ED
:10084400F2E0FA93EA93EDD2EBEFE093E800089537
:100854002497E0E0EA93CAD2309711F40C941E0670
:10086400E0E0EA93E0E1EA93EEE0F2E0FA93EA935F
:10087400D8D2FF2766277727E883F9836A837B83A7
:10088400E0E0EA93C7D2A881B9818A819B81A8302C
:10089400E0E0BE07E0E08E07E0E09E0709F0CDC18E
:1008A40050900E0240900F02A0911002F09111029C
:1008B400E0E0B0E0EA0FFB1F3F01A0911202F091CB
:1008C4001302E0E0B0E0EA0FFB1F4F01A091140215
:1008D400F0911502E0E0B0E0EA0FFB1F5F01E52DA7
:1008E400E078E03811F00C94D505E52DE295EF7031
:1008F400E695E370E03011F00C949105E42DE830B6
:1009040009F40CC1E63011F00C949005E72DF07059
:10091400E130A0E0FA0791F5E4E7F0E066277727F5
:10092400E0931E02F0931F02609320027093210251
:10093400E4E7F0E0E491D501F0E0EA17FB07C0F446
:10094400E4E7F0E0E491F0E0E0930902F0930A02B6
:10095400EBE7F0E0E491A0910902B0910A02F0E023
:100964000E94CC07309719F4E1E0E0930B0204C035
:10097400A0920902B0920A02EFDDD0C0E230A0E0FA
:10098400FA0711F00C940105E6E8F0E066277727F2
:10099400E0931E02F0931F026093200270932102E1
:1009A400E9E8F0E0E491F0E0E0930902F0930A0250
:1009B400F0910902E0E0DF01E8E8F0E0E491F0E022
:1009C400EA0FFB1FE0930902F0930A02EA15FB0504
:1009D40080F4EBE7F0E0E491A0910902B0910A02FF
:1009E400F0E00E94CC07309719F4E1E0E0930B02A9
:1009F40004C0A0920902B0920A02AEDD8FC0E330B7
:100A0400A0E0FA0711F00C949005F301F070309710
:100A1400A9F4EAECF0E066277727E0931E02F0934E
:100A24001F026093200270932102EAECF0E0E4914B
:100A3400F0E0E0930902F0930A0254C0E130A0E030
:100A4400FA07A9F4EEECF0E066277727E0931E029C
:100A5400F0931F026093200270932102EEECF0E009
:100A6400E491F0E0E0930902F0930A023BC0E23023
:100A7400A0E0FA07A9F4E0E2F1E066277727E09323
:100A84001E02F0931F026093200270932102E0E2A1
:100A9400F1E0E491F0E0E0930902F0930A0222C04D
:100AA400E330A0E0FA07A9F4E6E4F1E0662777274B
:100AB400E0931E02F0931F026093200270932102C0
:100AC400E6E4F1E0E491F0E0E0930902F0930A0235
:100AD40009C0E0E0F0E0E0930902F0930A02E1E0EB
:100AE400E0930B02E0910902F0910A02EA15FB057A
:100AF40080F4EBE7F0E0E491A0910902B0910A02DE
:100B0400F0E00E94CC07309719F4E1E0E0930B0287
:100B140004C0A0920902B0920A021EDD43C0E13073
:100B240011F00C94D405E42DE132B9F4E7E0F0E0DF
:100B3400E0930902F0930A02E2E2F2E066277727E3
:100B4400E050F04060407F4FE0931E02F0931F029C
:100B5400609320027093210209C0E0E0F0E0E0938A
:100B64000902F0930A02E1E0E0930B02E09109022A
:100B7400F0910A02EA15FB0580F4EBE7F0E0E4915A
:100B8400A0910902B0910A02F0E00E94CC073097CC
:100B940019F4E1E0E0930B0204C0A0920902B092C0
:100BA4000A02DADC48C0E52DE295EF70E695E370C1
:100BB400E03081F5E42DE13061F1E53071F4E0E0FD
:100BC400F0E0E0930902F0930A02E1E0E0930B0203
:100BD400C3DCF301EA93BAD01CC0E93051F4F30149
:100BE400E0930602EA93A2D0E0910602EA93CBD006
:100BF40006C0E73071F0E33061F0EB3051F0E0E033
:100C0400F0E0E0930902F0930A02E1E0E0930B02C2
:100C1400A3DC11C0E13079F4E42DE23211F0E032CA
:100C240051F0E0E0F0E0E0930902F0930A02E1E021
:100C3400E0930B0291DC01C063DD249608958CDC03
:100C44000895EEEFE093E800E0E0E09307020895F2
:100C5400EBEFE093E800E2E0EA93D5D00895EEEFFD
:100C6400E093E800E0E0E09308020895E0910402D4
:100C7400E03009F00895EBEFE093E800E4E0EA9354
:100C8400E0E4EA93E1ECF1E0FA93EA93CAD0E0936A
:100C94000402E4E0EA93B7D0E0E0E09305020895AB
:100CA400E1E0E093E000E8EEF3E060E070E00E9451
:100CB400E2070E94B4010895E0E8E093D800E0E080
:100CC400E093E0000895ECDFE4E0E9BDE9B5E2601B
:100CD400E9BDE9B5E170E9F3E0E0E093D800E0E8CC
:100CE400E093D800E0E0E093DC00E093FB00E093C5
:100CF400E200E093F000E0930602DEDF0895EFE106
:100D0400E093EA00E0E0E093EA00E093E900E09396
:100D1400E800E1E0E093EB00E0E0E093EC00E2E0E7
:100D2400E093ED00E0E8E093D8000895E0E0E88384
:100D3400A2C0E881E03021F4E091E300EF7703C042
:100D4400E091E300E068E093E30095C0E881E0937C
:100D5400E300E091E800E17079F4A091E100E1E0C2
:100D6400E03029F4E8E0E03011F4E0E001C0E1E033
:100D7400EA2309F080C0EDCFE881E03019F0E1E02A
:100D8400EA93D7DF78C0E881E03079F1E1E0E093DD
:100D9400E900E093EB00E1ECE093EC00E2E1E093A6
:100DA400ED00E2E0E093E900E1E0E093EB00E0EC49
:100DB400E093EC00E2E1E093ED00E3E0E093E9008E
:100DC400E1E0E093EB00E1E8E093EC00E2E3E093A0
:100DD400ED00E4E0E093E900E1E0E093EB00E0E81B
:100DE400E093EC00E2E3E093ED0045C0E881E0939A
:100DF400E900E091E800E87019F0EFEFF0E03BC0A3
:100E0400E0E0F0E038C0E881E093E900EFE7E09348
:100E1400E8002EC0E881E093E900E7EFE093E80002
:100E240027C01A930A93ED81E093E9000091F20040
:100E3400EC81E01708F40C8110E0101750F4AA813B
:100E4400BB81EE27A10FBE1FE091F100EC931F5F61
:100E5400F4CFE02F1981088126960895E881E09364
:100E6400E900E03011F4EEEF01C0EFE7E093E800B1
:100E7400E2E0E0938001219608951A93EC81E093D7
:100E8400E90010E0EB811E1750F4A981BA81EE2726
:100E9400A10FBE1FEC91E093F1001F5FF3CF13C0CD
:100EA4001A93EC81E093E90010E0EB811E1758F4EB
:100EB400E12FA981BA81F0E0EA0FFB1FE491E093EE
:100EC400F1001F5FF2CFEC81EA93C8DFEB81188158
:100ED40025960895EA0FFB1F681F791F0895F09562
:100EE40060957095E195FF4F6F4F7F4F0895EE2306
:100EF4000E2EFD01BC0131F0EE0FFF1F661F771FA0
:100F04000A94D1F70895E62FF72F60E070E0089572
:100F1400EE23E1E009F0EE2708950024112490E186
:100F2400AA0FBB1F001C111C0E1A1F0A18F40E0E68
:100F34001F1E01C0A1609A9599F7FD01D001089583
:100F44003F934F935F93002411244427552730E2A5
:100F5400AA0FBB1F881F991F001C111C441F551F7B
:100F64000E1A1F0A460B570B28F40E0E1F1E461F9F
:100F7400571F01C0A1603A9559F7FD01BC01D0018A
:100F8400CA015F914F913F91089507D0D9DF0EF4C4
:100F9400A6DF0895C2DFFD010895E89477FF02C03B
:100FA4009EDF689497FF0BC00024A095B0958095B0
:100FB40090951196801D901D00F8039400FA0895F1
:100FC4007A936A93FA93EA930895182E862F612DE3
:100FD400192E972F712D1B2EBF2FF12D1A2EAE2FE8
:100FE400E12D0895552342F4503811F4E0FF04C074
:100FF4003196691F791F6BF050E8572711F45F93FE
:10100400C8C05F3F31F0660F000C57956795752F88
:1010140008955F9300200AF0C8C0C1C050E8192E9B
:101024001522880F991F9527550F879550E8072E8D
:101034000522660F771F7527550F679508956894E5
:1010440001C0E8945F93F2DF703818F07F3F08F432
:10105400A0C056E1571BAAF4519558300EF45930EC
:1010640030F0EFEFFFEF6FEF7FE777F91AC07727E4
:101074005523B9F0EE0FFF1F661F771F5A95D1F75E
:1010840010C07727583028F0EF2FF62F672F5850CD
:10109400F9CF552331F076956795F795E7955A95ED
:1010A400D1F700200AF41BDF5F910895689401C012
:1010B400E894309760407040B1F0002426F0772324
:1010C40012F400940CDF172E7EE1112032F07A9591
:1010D400EE0FFF1F661F111CF9CFEF2FF62F612DA6
:1010E4005F938ADF5F9108954F93AF01FD01DA01A9
:1010F400AB01BC01CA01402D012C142E4F9108955F
:10110400EA0FFB1F681F0895E095F0956095EF5F67
:10111400FF4F6F4F08955F9381DF903849F150E896
:101124001526703821F1572F591B13F112F4DCDF07
:10113400FACF583118F0AA27BB278827583028F04F
:10114400AB2FB82F88275850F9CF552329F086950F
:10115400B795A7955A95D9F7502D512562F0D0DF50
:1011640038F46795F795E795739513F41EC0BCDFC3
:1011740043DF5F910895EA1BFB0B680B51F010F4F9
:101184000094C2DF6623A2F3EE0FFF1F661F7A9559
:10119400CBF7EE27FF27662777275F910895EFEFB8
:1011A400FFEF6FE77FEF5F910895EFEFFFEF6FE7DA
:1011B4007FE75F9108955F9331DF703821F4112048
:1011C4000AF4EDCFF2CF903809F4E3CF0124089468
:1011D400970B1BF4D4F30020F3CF792F1F932F9395
:1011E4003F934F9311241127222733274427552750
:1011F40090E2AE17BF078607410730F0AE1BBF0B66
:10120400860B410B089401C08894551F221F331F7D
:10121400111CAA1FBB1F881F441F9A9551F7F9017F
:10122400612D4F913F912F911F91662332F0550FFD
:10123400EE1FFF1F661F7A9543F2D4DE5F91089577
:00000001FF
